{"contracts/Oracle.sol":{"Oracle":{"abi":[{"anonymous":false,"inputs":[{"indexed":true,"internalType":"address","name":"previousOwner","type":"address"},{"indexed":true,"internalType":"address","name":"newOwner","type":"address"}],"name":"OwnershipTransferred","type":"event"},{"inputs":[{"internalType":"uint8","name":"","type":"uint8"}],"name":"driverCosts","outputs":[{"internalType":"uint256","name":"","type":"uint256"}],"stateMutability":"view","type":"function"},{"inputs":[{"internalType":"uint8","name":"","type":"uint8"}],"name":"driverRatings","outputs":[{"internalType":"uint8","name":"","type":"uint8"}],"stateMutability":"view","type":"function"},{"inputs":[{"internalType":"uint8","name":"driverNumber","type":"uint8"}],"name":"getDriverCost","outputs":[{"internalType":"uint256","name":"","type":"uint256"}],"stateMutability":"view","type":"function"},{"inputs":[{"internalType":"uint8","name":"driverNumber","type":"uint8"}],"name":"getDriverRating","outputs":[{"internalType":"uint8","name":"","type":"uint8"}],"stateMutability":"view","type":"function"},{"inputs":[{"internalType":"uint8","name":"teamNumber","type":"uint8"}],"name":"getTeamCost","outputs":[{"internalType":"uint256","name":"","type":"uint256"}],"stateMutability":"view","type":"function"},{"inputs":[{"internalType":"uint8","name":"raceNumber","type":"uint8"}],"name":"getTrackData","outputs":[{"components":[{"internalType":"uint8","name":"temperature","type":"uint8"},{"internalType":"uint8","name":"conditions","type":"uint8"}],"internalType":"struct TrackData","name":"","type":"tuple"}],"stateMutability":"view","type":"function"},{"inputs":[],"name":"owner","outputs":[{"internalType":"address","name":"","type":"address"}],"stateMutability":"view","type":"function"},{"inputs":[],"name":"renounceOwnership","outputs":[],"stateMutability":"nonpayable","type":"function"},{"inputs":[{"internalType":"uint8","name":"driverNumber","type":"uint8"},{"internalType":"uint256","name":"cost","type":"uint256"}],"name":"setDriverCost","outputs":[],"stateMutability":"nonpayable","type":"function"},{"inputs":[{"internalType":"uint8","name":"driverNumber","type":"uint8"},{"internalType":"uint8","name":"rating","type":"uint8"}],"name":"setDriverRating","outputs":[],"stateMutability":"nonpayable","type":"function"},{"inputs":[{"internalType":"uint8","name":"teamNumber","type":"uint8"},{"internalType":"uint256","name":"cost","type":"uint256"}],"name":"setTeamCost","outputs":[],"stateMutability":"nonpayable","type":"function"},{"inputs":[{"internalType":"uint8","name":"raceNumber","type":"uint8"},{"internalType":"uint8","name":"temperature","type":"uint8"},{"internalType":"uint8","name":"conditions","type":"uint8"}],"name":"setTrackData","outputs":[],"stateMutability":"nonpayable","type":"function"},{"inputs":[{"internalType":"uint8","name":"","type":"uint8"}],"name":"teamCosts","outputs":[{"internalType":"uint256","name":"","type":"uint256"}],"stateMutability":"view","type":"function"},{"inputs":[{"internalType":"uint8","name":"","type":"uint8"}],"name":"trackData","outputs":[{"internalType":"uint8","name":"temperature","type":"uint8"},{"internalType":"uint8","name":"conditions","type":"uint8"}],"stateMutability":"view","type":"function"},{"inputs":[{"internalType":"address","name":"newOwner","type":"address"}],"name":"transferOwnership","outputs":[],"stateMutability":"nonpayable","type":"function"}],"evm":{"bytecode":{"linkReferences":{},"object":"608060405234801561001057600080fd5b5061001a3361001f565b61006f565b600080546001600160a01b038381166001600160a01b0319831681178455604051919092169283917f8be0079c531659141344cd1fd0a4f28419497f9722a3daafe3b4186f6b6457e09190a35050565b6106578061007e6000396000f3fe608060405234801561001057600080fd5b50600436106100f55760003560e01c80638556646b11610097578063eac1638011610066578063eac16380146102bf578063f2fde38b146102df578063fcf4ed93146102f2578063fe16babb1461031857600080fd5b80638556646b1461024b5780638da5cb5b1461026e578063a14427ae14610289578063d122e93a1461029c57600080fd5b8063631869bf116100d3578063631869bf1461018857806367883f4b1461019b5780636b0639411461020e578063715018a61461024357600080fd5b8063067b51da146100fa57806343da32b61461012d5780635a7001f214610173575b600080fd5b61011a610108366004610536565b60016020526000908152604090205481565b6040519081526020015b60405180910390f35b61015961013b366004610536565b60046020526000908152604090205460ff8082169161010090041682565b6040805160ff938416815292909116602083015201610124565b610186610181366004610558565b61032b565b005b610186610196366004610558565b610349565b6101ed6101a9366004610536565b6040805180820182526000808252602091820181905260ff938416815260048252829020825180840190935254808416835261010090049092169181019190915290565b60408051825160ff9081168252602093840151169281019290925201610124565b61023161021c366004610536565b60036020526000908152604090205460ff1681565b60405160ff9091168152602001610124565b610186610367565b61011a610259366004610536565b60ff1660009081526002602052604090205490565b6000546040516001600160a01b039091168152602001610124565b610186610297366004610582565b61037b565b61011a6102aa366004610536565b60ff1660009081526001602052604090205490565b61011a6102cd366004610536565b60026020526000908152604090205481565b6101866102ed3660046105b5565b6103a5565b610231610300366004610536565b60ff9081166000908152600360205260409020541690565b6101866103263660046105de565b610423565b610333610476565b60ff909116600090815260016020526040902055565b610351610476565b60ff909116600090815260026020526040902055565b61036f610476565b61037960006104d0565b565b610383610476565b60ff9182166000908152600360205260409020805460ff191691909216179055565b6103ad610476565b6001600160a01b0381166104175760405162461bcd60e51b815260206004820152602660248201527f4f776e61626c653a206e6577206f776e657220697320746865207a65726f206160448201526564647265737360d01b60648201526084015b60405180910390fd5b610420816104d0565b50565b61042b610476565b60408051808201825260ff9384168152918316602080840191825294841660009081526004909552932090518154935183166101000261ffff19909416921691909117919091179055565b6000546001600160a01b031633146103795760405162461bcd60e51b815260206004820181905260248201527f4f776e61626c653a2063616c6c6572206973206e6f7420746865206f776e6572604482015260640161040e565b600080546001600160a01b038381166001600160a01b0319831681178455604051919092169283917f8be0079c531659141344cd1fd0a4f28419497f9722a3daafe3b4186f6b6457e09190a35050565b803560ff8116811461053157600080fd5b919050565b60006020828403121561054857600080fd5b61055182610520565b9392505050565b6000806040838503121561056b57600080fd5b61057483610520565b946020939093013593505050565b6000806040838503121561059557600080fd5b61059e83610520565b91506105ac60208401610520565b90509250929050565b6000602082840312156105c757600080fd5b81356001600160a01b038116811461055157600080fd5b6000806000606084860312156105f357600080fd5b6105fc84610520565b925061060a60208501610520565b915061061860408501610520565b9050925092509256fea26469706673582212206f3aabe15c315ec6c8f585e29de4623471d39cec946e6827fc741c2dc97461f264736f6c63430008110033","opcodes":"PUSH1 0x80 PUSH1 0x40 MSTORE CALLVALUE DUP1 ISZERO PUSH2 0x10 JUMPI PUSH1 0x0 DUP1 REVERT JUMPDEST POP PUSH2 0x1A CALLER PUSH2 0x1F JUMP JUMPDEST PUSH2 0x6F JUMP JUMPDEST PUSH1 0x0 DUP1 SLOAD PUSH1 0x1 PUSH1 0x1 PUSH1 0xA0 SHL SUB DUP4 DUP2 AND PUSH1 0x1 PUSH1 0x1 PUSH1 0xA0 SHL SUB NOT DUP4 AND DUP2 OR DUP5 SSTORE PUSH1 0x40 MLOAD SWAP2 SWAP1 SWAP3 AND SWAP3 DUP4 SWAP2 PUSH32 0x8BE0079C531659141344CD1FD0A4F28419497F9722A3DAAFE3B4186F6B6457E0 SWAP2 SWAP1 LOG3 POP POP JUMP JUMPDEST PUSH2 0x657 DUP1 PUSH2 0x7E PUSH1 0x0 CODECOPY PUSH1 0x0 RETURN INVALID PUSH1 0x80 PUSH1 0x40 MSTORE CALLVALUE DUP1 ISZERO PUSH2 0x10 JUMPI PUSH1 0x0 DUP1 REVERT JUMPDEST POP PUSH1 0x4 CALLDATASIZE LT PUSH2 0xF5 JUMPI PUSH1 0x0 CALLDATALOAD PUSH1 0xE0 SHR DUP1 PUSH4 0x8556646B GT PUSH2 0x97 JUMPI DUP1 PUSH4 0xEAC16380 GT PUSH2 0x66 JUMPI DUP1 PUSH4 0xEAC16380 EQ PUSH2 0x2BF JUMPI DUP1 PUSH4 0xF2FDE38B EQ PUSH2 0x2DF JUMPI DUP1 PUSH4 0xFCF4ED93 EQ PUSH2 0x2F2 JUMPI DUP1 PUSH4 0xFE16BABB EQ PUSH2 0x318 JUMPI PUSH1 0x0 DUP1 REVERT JUMPDEST DUP1 PUSH4 0x8556646B EQ PUSH2 0x24B JUMPI DUP1 PUSH4 0x8DA5CB5B EQ PUSH2 0x26E JUMPI DUP1 PUSH4 0xA14427AE EQ PUSH2 0x289 JUMPI DUP1 PUSH4 0xD122E93A EQ PUSH2 0x29C JUMPI PUSH1 0x0 DUP1 REVERT JUMPDEST DUP1 PUSH4 0x631869BF GT PUSH2 0xD3 JUMPI DUP1 PUSH4 0x631869BF EQ PUSH2 0x188 JUMPI DUP1 PUSH4 0x67883F4B EQ PUSH2 0x19B JUMPI DUP1 PUSH4 0x6B063941 EQ PUSH2 0x20E JUMPI DUP1 PUSH4 0x715018A6 EQ PUSH2 0x243 JUMPI PUSH1 0x0 DUP1 REVERT JUMPDEST DUP1 PUSH4 0x67B51DA EQ PUSH2 0xFA JUMPI DUP1 PUSH4 0x43DA32B6 EQ PUSH2 0x12D JUMPI DUP1 PUSH4 0x5A7001F2 EQ PUSH2 0x173 JUMPI JUMPDEST PUSH1 0x0 DUP1 REVERT JUMPDEST PUSH2 0x11A PUSH2 0x108 CALLDATASIZE PUSH1 0x4 PUSH2 0x536 JUMP JUMPDEST PUSH1 0x1 PUSH1 0x20 MSTORE PUSH1 0x0 SWAP1 DUP2 MSTORE PUSH1 0x40 SWAP1 KECCAK256 SLOAD DUP2 JUMP JUMPDEST PUSH1 0x40 MLOAD SWAP1 DUP2 MSTORE PUSH1 0x20 ADD JUMPDEST PUSH1 0x40 MLOAD DUP1 SWAP2 SUB SWAP1 RETURN JUMPDEST PUSH2 0x159 PUSH2 0x13B CALLDATASIZE PUSH1 0x4 PUSH2 0x536 JUMP JUMPDEST PUSH1 0x4 PUSH1 0x20 MSTORE PUSH1 0x0 SWAP1 DUP2 MSTORE PUSH1 0x40 SWAP1 KECCAK256 SLOAD PUSH1 0xFF DUP1 DUP3 AND SWAP2 PUSH2 0x100 SWAP1 DIV AND DUP3 JUMP JUMPDEST PUSH1 0x40 DUP1 MLOAD PUSH1 0xFF SWAP4 DUP5 AND DUP2 MSTORE SWAP3 SWAP1 SWAP2 AND PUSH1 0x20 DUP4 ADD MSTORE ADD PUSH2 0x124 JUMP JUMPDEST PUSH2 0x186 PUSH2 0x181 CALLDATASIZE PUSH1 0x4 PUSH2 0x558 JUMP JUMPDEST PUSH2 0x32B JUMP JUMPDEST STOP JUMPDEST PUSH2 0x186 PUSH2 0x196 CALLDATASIZE PUSH1 0x4 PUSH2 0x558 JUMP JUMPDEST PUSH2 0x349 JUMP JUMPDEST PUSH2 0x1ED PUSH2 0x1A9 CALLDATASIZE PUSH1 0x4 PUSH2 0x536 JUMP JUMPDEST PUSH1 0x40 DUP1 MLOAD DUP1 DUP3 ADD DUP3 MSTORE PUSH1 0x0 DUP1 DUP3 MSTORE PUSH1 0x20 SWAP2 DUP3 ADD DUP2 SWAP1 MSTORE PUSH1 0xFF SWAP4 DUP5 AND DUP2 MSTORE PUSH1 0x4 DUP3 MSTORE DUP3 SWAP1 KECCAK256 DUP3 MLOAD DUP1 DUP5 ADD SWAP1 SWAP4 MSTORE SLOAD DUP1 DUP5 AND DUP4 MSTORE PUSH2 0x100 SWAP1 DIV SWAP1 SWAP3 AND SWAP2 DUP2 ADD SWAP2 SWAP1 SWAP2 MSTORE SWAP1 JUMP JUMPDEST PUSH1 0x40 DUP1 MLOAD DUP3 MLOAD PUSH1 0xFF SWAP1 DUP2 AND DUP3 MSTORE PUSH1 0x20 SWAP4 DUP5 ADD MLOAD AND SWAP3 DUP2 ADD SWAP3 SWAP1 SWAP3 MSTORE ADD PUSH2 0x124 JUMP JUMPDEST PUSH2 0x231 PUSH2 0x21C CALLDATASIZE PUSH1 0x4 PUSH2 0x536 JUMP JUMPDEST PUSH1 0x3 PUSH1 0x20 MSTORE PUSH1 0x0 SWAP1 DUP2 MSTORE PUSH1 0x40 SWAP1 KECCAK256 SLOAD PUSH1 0xFF AND DUP2 JUMP JUMPDEST PUSH1 0x40 MLOAD PUSH1 0xFF SWAP1 SWAP2 AND DUP2 MSTORE PUSH1 0x20 ADD PUSH2 0x124 JUMP JUMPDEST PUSH2 0x186 PUSH2 0x367 JUMP JUMPDEST PUSH2 0x11A PUSH2 0x259 CALLDATASIZE PUSH1 0x4 PUSH2 0x536 JUMP JUMPDEST PUSH1 0xFF AND PUSH1 0x0 SWAP1 DUP2 MSTORE PUSH1 0x2 PUSH1 0x20 MSTORE PUSH1 0x40 SWAP1 KECCAK256 SLOAD SWAP1 JUMP JUMPDEST PUSH1 0x0 SLOAD PUSH1 0x40 MLOAD PUSH1 0x1 PUSH1 0x1 PUSH1 0xA0 SHL SUB SWAP1 SWAP2 AND DUP2 MSTORE PUSH1 0x20 ADD PUSH2 0x124 JUMP JUMPDEST PUSH2 0x186 PUSH2 0x297 CALLDATASIZE PUSH1 0x4 PUSH2 0x582 JUMP JUMPDEST PUSH2 0x37B JUMP JUMPDEST PUSH2 0x11A PUSH2 0x2AA CALLDATASIZE PUSH1 0x4 PUSH2 0x536 JUMP JUMPDEST PUSH1 0xFF AND PUSH1 0x0 SWAP1 DUP2 MSTORE PUSH1 0x1 PUSH1 0x20 MSTORE PUSH1 0x40 SWAP1 KECCAK256 SLOAD SWAP1 JUMP JUMPDEST PUSH2 0x11A PUSH2 0x2CD CALLDATASIZE PUSH1 0x4 PUSH2 0x536 JUMP JUMPDEST PUSH1 0x2 PUSH1 0x20 MSTORE PUSH1 0x0 SWAP1 DUP2 MSTORE PUSH1 0x40 SWAP1 KECCAK256 SLOAD DUP2 JUMP JUMPDEST PUSH2 0x186 PUSH2 0x2ED CALLDATASIZE PUSH1 0x4 PUSH2 0x5B5 JUMP JUMPDEST PUSH2 0x3A5 JUMP JUMPDEST PUSH2 0x231 PUSH2 0x300 CALLDATASIZE PUSH1 0x4 PUSH2 0x536 JUMP JUMPDEST PUSH1 0xFF SWAP1 DUP2 AND PUSH1 0x0 SWAP1 DUP2 MSTORE PUSH1 0x3 PUSH1 0x20 MSTORE PUSH1 0x40 SWAP1 KECCAK256 SLOAD AND SWAP1 JUMP JUMPDEST PUSH2 0x186 PUSH2 0x326 CALLDATASIZE PUSH1 0x4 PUSH2 0x5DE JUMP JUMPDEST PUSH2 0x423 JUMP JUMPDEST PUSH2 0x333 PUSH2 0x476 JUMP JUMPDEST PUSH1 0xFF SWAP1 SWAP2 AND PUSH1 0x0 SWAP1 DUP2 MSTORE PUSH1 0x1 PUSH1 0x20 MSTORE PUSH1 0x40 SWAP1 KECCAK256 SSTORE JUMP JUMPDEST PUSH2 0x351 PUSH2 0x476 JUMP JUMPDEST PUSH1 0xFF SWAP1 SWAP2 AND PUSH1 0x0 SWAP1 DUP2 MSTORE PUSH1 0x2 PUSH1 0x20 MSTORE PUSH1 0x40 SWAP1 KECCAK256 SSTORE JUMP JUMPDEST PUSH2 0x36F PUSH2 0x476 JUMP JUMPDEST PUSH2 0x379 PUSH1 0x0 PUSH2 0x4D0 JUMP JUMPDEST JUMP JUMPDEST PUSH2 0x383 PUSH2 0x476 JUMP JUMPDEST PUSH1 0xFF SWAP2 DUP3 AND PUSH1 0x0 SWAP1 DUP2 MSTORE PUSH1 0x3 PUSH1 0x20 MSTORE PUSH1 0x40 SWAP1 KECCAK256 DUP1 SLOAD PUSH1 0xFF NOT AND SWAP2 SWAP1 SWAP3 AND OR SWAP1 SSTORE JUMP JUMPDEST PUSH2 0x3AD PUSH2 0x476 JUMP JUMPDEST PUSH1 0x1 PUSH1 0x1 PUSH1 0xA0 SHL SUB DUP2 AND PUSH2 0x417 JUMPI PUSH1 0x40 MLOAD PUSH3 0x461BCD PUSH1 0xE5 SHL DUP2 MSTORE PUSH1 0x20 PUSH1 0x4 DUP3 ADD MSTORE PUSH1 0x26 PUSH1 0x24 DUP3 ADD MSTORE PUSH32 0x4F776E61626C653A206E6577206F776E657220697320746865207A65726F2061 PUSH1 0x44 DUP3 ADD MSTORE PUSH6 0x646472657373 PUSH1 0xD0 SHL PUSH1 0x64 DUP3 ADD MSTORE PUSH1 0x84 ADD JUMPDEST PUSH1 0x40 MLOAD DUP1 SWAP2 SUB SWAP1 REVERT JUMPDEST PUSH2 0x420 DUP2 PUSH2 0x4D0 JUMP JUMPDEST POP JUMP JUMPDEST PUSH2 0x42B PUSH2 0x476 JUMP JUMPDEST PUSH1 0x40 DUP1 MLOAD DUP1 DUP3 ADD DUP3 MSTORE PUSH1 0xFF SWAP4 DUP5 AND DUP2 MSTORE SWAP2 DUP4 AND PUSH1 0x20 DUP1 DUP5 ADD SWAP2 DUP3 MSTORE SWAP5 DUP5 AND PUSH1 0x0 SWAP1 DUP2 MSTORE PUSH1 0x4 SWAP1 SWAP6 MSTORE SWAP4 KECCAK256 SWAP1 MLOAD DUP2 SLOAD SWAP4 MLOAD DUP4 AND PUSH2 0x100 MUL PUSH2 0xFFFF NOT SWAP1 SWAP5 AND SWAP3 AND SWAP2 SWAP1 SWAP2 OR SWAP2 SWAP1 SWAP2 OR SWAP1 SSTORE JUMP JUMPDEST PUSH1 0x0 SLOAD PUSH1 0x1 PUSH1 0x1 PUSH1 0xA0 SHL SUB AND CALLER EQ PUSH2 0x379 JUMPI PUSH1 0x40 MLOAD PUSH3 0x461BCD PUSH1 0xE5 SHL DUP2 MSTORE PUSH1 0x20 PUSH1 0x4 DUP3 ADD DUP2 SWAP1 MSTORE PUSH1 0x24 DUP3 ADD MSTORE PUSH32 0x4F776E61626C653A2063616C6C6572206973206E6F7420746865206F776E6572 PUSH1 0x44 DUP3 ADD MSTORE PUSH1 0x64 ADD PUSH2 0x40E JUMP JUMPDEST PUSH1 0x0 DUP1 SLOAD PUSH1 0x1 PUSH1 0x1 PUSH1 0xA0 SHL SUB DUP4 DUP2 AND PUSH1 0x1 PUSH1 0x1 PUSH1 0xA0 SHL SUB NOT DUP4 AND DUP2 OR DUP5 SSTORE PUSH1 0x40 MLOAD SWAP2 SWAP1 SWAP3 AND SWAP3 DUP4 SWAP2 PUSH32 0x8BE0079C531659141344CD1FD0A4F28419497F9722A3DAAFE3B4186F6B6457E0 SWAP2 SWAP1 LOG3 POP POP JUMP JUMPDEST DUP1 CALLDATALOAD PUSH1 0xFF DUP2 AND DUP2 EQ PUSH2 0x531 JUMPI PUSH1 0x0 DUP1 REVERT JUMPDEST SWAP2 SWAP1 POP JUMP JUMPDEST PUSH1 0x0 PUSH1 0x20 DUP3 DUP5 SUB SLT ISZERO PUSH2 0x548 JUMPI PUSH1 0x0 DUP1 REVERT JUMPDEST PUSH2 0x551 DUP3 PUSH2 0x520 JUMP JUMPDEST SWAP4 SWAP3 POP POP POP JUMP JUMPDEST PUSH1 0x0 DUP1 PUSH1 0x40 DUP4 DUP6 SUB SLT ISZERO PUSH2 0x56B JUMPI PUSH1 0x0 DUP1 REVERT JUMPDEST PUSH2 0x574 DUP4 PUSH2 0x520 JUMP JUMPDEST SWAP5 PUSH1 0x20 SWAP4 SWAP1 SWAP4 ADD CALLDATALOAD SWAP4 POP POP POP JUMP JUMPDEST PUSH1 0x0 DUP1 PUSH1 0x40 DUP4 DUP6 SUB SLT ISZERO PUSH2 0x595 JUMPI PUSH1 0x0 DUP1 REVERT JUMPDEST PUSH2 0x59E DUP4 PUSH2 0x520 JUMP JUMPDEST SWAP2 POP PUSH2 0x5AC PUSH1 0x20 DUP5 ADD PUSH2 0x520 JUMP JUMPDEST SWAP1 POP SWAP3 POP SWAP3 SWAP1 POP JUMP JUMPDEST PUSH1 0x0 PUSH1 0x20 DUP3 DUP5 SUB SLT ISZERO PUSH2 0x5C7 JUMPI PUSH1 0x0 DUP1 REVERT JUMPDEST DUP2 CALLDATALOAD PUSH1 0x1 PUSH1 0x1 PUSH1 0xA0 SHL SUB DUP2 AND DUP2 EQ PUSH2 0x551 JUMPI PUSH1 0x0 DUP1 REVERT JUMPDEST PUSH1 0x0 DUP1 PUSH1 0x0 PUSH1 0x60 DUP5 DUP7 SUB SLT ISZERO PUSH2 0x5F3 JUMPI PUSH1 0x0 DUP1 REVERT JUMPDEST PUSH2 0x5FC DUP5 PUSH2 0x520 JUMP JUMPDEST SWAP3 POP PUSH2 0x60A PUSH1 0x20 DUP6 ADD PUSH2 0x520 JUMP JUMPDEST SWAP2 POP PUSH2 0x618 PUSH1 0x40 DUP6 ADD PUSH2 0x520 JUMP JUMPDEST SWAP1 POP SWAP3 POP SWAP3 POP SWAP3 JUMP INVALID LOG2 PUSH5 0x6970667358 0x22 SLT KECCAK256 PUSH16 0x3AABE15C315EC6C8F585E29DE4623471 0xD3 SWAP13 0xEC SWAP5 PUSH15 0x6827FC741C2DC97461F264736F6C63 NUMBER STOP ADDMOD GT STOP CALLER "},"methodIdentifiers":{"driverCosts(uint8)":"067b51da","driverRatings(uint8)":"6b063941","getDriverCost(uint8)":"d122e93a","getDriverRating(uint8)":"fcf4ed93","getTeamCost(uint8)":"8556646b","getTrackData(uint8)":"67883f4b","owner()":"8da5cb5b","renounceOwnership()":"715018a6","setDriverCost(uint8,uint256)":"5a7001f2","setDriverRating(uint8,uint8)":"a14427ae","setTeamCost(uint8,uint256)":"631869bf","setTrackData(uint8,uint8,uint8)":"fe16babb","teamCosts(uint8)":"eac16380","trackData(uint8)":"43da32b6","transferOwnership(address)":"f2fde38b"}}}}}