{"contracts/Fantasy.sol":{"FantasyOne":{"abi":[{"inputs":[{"internalType":"address","name":"_oracle","type":"address"},{"internalType":"address","name":"_token","type":"address"},{"internalType":"string","name":"_baseURI","type":"string"}],"stateMutability":"nonpayable","type":"constructor"},{"inputs":[],"name":"ApprovalCallerNotOwnerNorApproved","type":"error"},{"inputs":[],"name":"ApprovalQueryForNonexistentToken","type":"error"},{"inputs":[],"name":"BalanceQueryForZeroAddress","type":"error"},{"inputs":[],"name":"MintERC2309QuantityExceedsLimit","type":"error"},{"inputs":[],"name":"MintToZeroAddress","type":"error"},{"inputs":[],"name":"MintZeroQuantity","type":"error"},{"inputs":[],"name":"OwnerQueryForNonexistentToken","type":"error"},{"inputs":[],"name":"OwnershipNotInitializedForExtraData","type":"error"},{"inputs":[],"name":"TransferCallerNotOwnerNorApproved","type":"error"},{"inputs":[],"name":"TransferFromIncorrectOwner","type":"error"},{"inputs":[],"name":"TransferToNonERC721ReceiverImplementer","type":"error"},{"inputs":[],"name":"TransferToZeroAddress","type":"error"},{"inputs":[],"name":"URIQueryForNonexistentToken","type":"error"},{"anonymous":false,"inputs":[{"indexed":true,"internalType":"address","name":"owner","type":"address"},{"indexed":true,"internalType":"address","name":"approved","type":"address"},{"indexed":true,"internalType":"uint256","name":"tokenId","type":"uint256"}],"name":"Approval","type":"event"},{"anonymous":false,"inputs":[{"indexed":true,"internalType":"address","name":"owner","type":"address"},{"indexed":true,"internalType":"address","name":"operator","type":"address"},{"indexed":false,"internalType":"bool","name":"approved","type":"bool"}],"name":"ApprovalForAll","type":"event"},{"anonymous":false,"inputs":[{"indexed":true,"internalType":"uint256","name":"fromTokenId","type":"uint256"},{"indexed":false,"internalType":"uint256","name":"toTokenId","type":"uint256"},{"indexed":true,"internalType":"address","name":"from","type":"address"},{"indexed":true,"internalType":"address","name":"to","type":"address"}],"name":"ConsecutiveTransfer","type":"event"},{"anonymous":false,"inputs":[{"indexed":true,"internalType":"address","name":"previousOwner","type":"address"},{"indexed":true,"internalType":"address","name":"newOwner","type":"address"}],"name":"OwnershipTransferred","type":"event"},{"anonymous":false,"inputs":[{"indexed":true,"internalType":"address","name":"from","type":"address"},{"indexed":true,"internalType":"address","name":"to","type":"address"},{"indexed":true,"internalType":"uint256","name":"tokenId","type":"uint256"}],"name":"Transfer","type":"event"},{"inputs":[],"name":"URISuffix","outputs":[{"internalType":"string","name":"","type":"string"}],"stateMutability":"view","type":"function"},{"inputs":[],"name":"activeRace","outputs":[{"internalType":"uint8","name":"","type":"uint8"}],"stateMutability":"view","type":"function"},{"inputs":[{"internalType":"address","name":"to","type":"address"},{"internalType":"uint256","name":"tokenId","type":"uint256"}],"name":"approve","outputs":[],"stateMutability":"payable","type":"function"},{"inputs":[{"internalType":"address","name":"owner","type":"address"}],"name":"balanceOf","outputs":[{"internalType":"uint256","name":"","type":"uint256"}],"stateMutability":"view","type":"function"},{"inputs":[],"name":"baseURI","outputs":[{"internalType":"string","name":"","type":"string"}],"stateMutability":"view","type":"function"},{"inputs":[{"internalType":"uint256","name":"tokenId","type":"uint256"}],"name":"getApproved","outputs":[{"internalType":"address","name":"","type":"address"}],"stateMutability":"view","type":"function"},{"inputs":[{"internalType":"uint8","name":"driverNumber","type":"uint8"}],"name":"getDriverCost","outputs":[{"internalType":"uint256","name":"","type":"uint256"}],"stateMutability":"view","type":"function"},{"inputs":[{"internalType":"uint8","name":"driverNumber","type":"uint8"}],"name":"getDriverRating","outputs":[{"internalType":"uint8","name":"","type":"uint8"}],"stateMutability":"view","type":"function"},{"inputs":[{"internalType":"uint8","name":"teamNumber","type":"uint8"}],"name":"getTeamCost","outputs":[{"internalType":"uint256","name":"","type":"uint256"}],"stateMutability":"view","type":"function"},{"inputs":[{"internalType":"uint8","name":"teamNumber","type":"uint8"}],"name":"getTeamRating","outputs":[{"internalType":"uint8","name":"","type":"uint8"}],"stateMutability":"view","type":"function"},{"inputs":[{"internalType":"uint8","name":"raceNumber","type":"uint8"}],"name":"getTrackData","outputs":[{"components":[{"internalType":"uint8","name":"temperature","type":"uint8"},{"internalType":"uint8","name":"conditions","type":"uint8"}],"internalType":"struct TrackData","name":"","type":"tuple"}],"stateMutability":"view","type":"function"},{"inputs":[{"internalType":"address","name":"owner","type":"address"},{"internalType":"address","name":"operator","type":"address"}],"name":"isApprovedForAll","outputs":[{"internalType":"bool","name":"","type":"bool"}],"stateMutability":"view","type":"function"},{"inputs":[{"internalType":"uint8","name":"_driverMain","type":"uint8"},{"internalType":"uint8","name":"_driverSecondary","type":"uint8"},{"internalType":"uint8","name":"_teamNumber","type":"uint8"}],"name":"mint","outputs":[],"stateMutability":"nonpayable","type":"function"},{"inputs":[],"name":"name","outputs":[{"internalType":"string","name":"","type":"string"}],"stateMutability":"view","type":"function"},{"inputs":[],"name":"oracle","outputs":[{"internalType":"contract IOracle","name":"","type":"address"}],"stateMutability":"view","type":"function"},{"inputs":[],"name":"owner","outputs":[{"internalType":"address","name":"","type":"address"}],"stateMutability":"view","type":"function"},{"inputs":[{"internalType":"uint256","name":"tokenId","type":"uint256"}],"name":"ownerOf","outputs":[{"internalType":"address","name":"","type":"address"}],"stateMutability":"view","type":"function"},{"inputs":[],"name":"renounceOwnership","outputs":[],"stateMutability":"nonpayable","type":"function"},{"inputs":[{"internalType":"address","name":"from","type":"address"},{"internalType":"address","name":"to","type":"address"},{"internalType":"uint256","name":"tokenId","type":"uint256"}],"name":"safeTransferFrom","outputs":[],"stateMutability":"payable","type":"function"},{"inputs":[{"internalType":"address","name":"from","type":"address"},{"internalType":"address","name":"to","type":"address"},{"internalType":"uint256","name":"tokenId","type":"uint256"},{"internalType":"bytes","name":"_data","type":"bytes"}],"name":"safeTransferFrom","outputs":[],"stateMutability":"payable","type":"function"},{"inputs":[{"internalType":"uint8","name":"raceNumber","type":"uint8"}],"name":"setActiveRace","outputs":[],"stateMutability":"nonpayable","type":"function"},{"inputs":[{"internalType":"address","name":"operator","type":"address"},{"internalType":"bool","name":"approved","type":"bool"}],"name":"setApprovalForAll","outputs":[],"stateMutability":"nonpayable","type":"function"},{"inputs":[{"internalType":"string","name":"_baseURI","type":"string"}],"name":"setBaseURI","outputs":[],"stateMutability":"nonpayable","type":"function"},{"inputs":[{"internalType":"bytes4","name":"interfaceId","type":"bytes4"}],"name":"supportsInterface","outputs":[{"internalType":"bool","name":"","type":"bool"}],"stateMutability":"view","type":"function"},{"inputs":[],"name":"symbol","outputs":[{"internalType":"string","name":"","type":"string"}],"stateMutability":"view","type":"function"},{"inputs":[],"name":"token","outputs":[{"internalType":"contract IERC20","name":"","type":"address"}],"stateMutability":"view","type":"function"},{"inputs":[{"internalType":"uint256","name":"","type":"uint256"}],"name":"tokenIdToDriverMapping","outputs":[{"internalType":"uint24","name":"","type":"uint24"}],"stateMutability":"view","type":"function"},{"inputs":[{"internalType":"uint256","name":"_tokenId","type":"uint256"}],"name":"tokenURI","outputs":[{"internalType":"string","name":"","type":"string"}],"stateMutability":"view","type":"function"},{"inputs":[],"name":"totalSupply","outputs":[{"internalType":"uint256","name":"","type":"uint256"}],"stateMutability":"view","type":"function"},{"inputs":[{"internalType":"address","name":"from","type":"address"},{"internalType":"address","name":"to","type":"address"},{"internalType":"uint256","name":"tokenId","type":"uint256"}],"name":"transferFrom","outputs":[],"stateMutability":"payable","type":"function"},{"inputs":[{"internalType":"address","name":"newOwner","type":"address"}],"name":"transferOwnership","outputs":[],"stateMutability":"nonpayable","type":"function"},{"inputs":[{"internalType":"address","name":"_oracle","type":"address"}],"name":"updateOracle","outputs":[],"stateMutability":"nonpayable","type":"function"},{"inputs":[{"internalType":"address","name":"_token","type":"address"}],"name":"updateToken","outputs":[],"stateMutability":"nonpayable","type":"function"}],"evm":{"bytecode":{"linkReferences":{},"object":"60c06040526005608090815264173539b7b760d91b60a052600d9062000026908262000281565b503480156200003457600080fd5b50604051620024783803806200247883398101604081905262000057916200036a565b6040518060400160405280600a81526020016946616e746173794f6e6560b01b815250604051806040016040528060038152602001622320a760e91b8152508160029081620000a7919062000281565b506003620000b6828262000281565b5050600160005550620000c9336200010d565b600a80546001600160a01b038086166001600160a01b031992831617909255600b80549285169290911691909117905562000104816200015f565b50505062000464565b600880546001600160a01b038381166001600160a01b0319831681179093556040519116919082907f8be0079c531659141344cd1fd0a4f28419497f9722a3daafe3b4186f6b6457e090600090a35050565b620001696200017b565b600c62000177828262000281565b5050565b6008546001600160a01b03163314620001da5760405162461bcd60e51b815260206004820181905260248201527f4f776e61626c653a2063616c6c6572206973206e6f7420746865206f776e6572604482015260640160405180910390fd5b565b634e487b7160e01b600052604160045260246000fd5b600181811c908216806200020757607f821691505b6020821081036200022857634e487b7160e01b600052602260045260246000fd5b50919050565b601f8211156200027c57600081815260208120601f850160051c81016020861015620002575750805b601f850160051c820191505b81811015620002785782815560010162000263565b5050505b505050565b81516001600160401b038111156200029d576200029d620001dc565b620002b581620002ae8454620001f2565b846200022e565b602080601f831160018114620002ed5760008415620002d45750858301515b600019600386901b1c1916600185901b17855562000278565b600085815260208120601f198616915b828110156200031e57888601518255948401946001909101908401620002fd565b50858210156200033d5787850151600019600388901b60f8161c191681555b5050505050600190811b01905550565b80516001600160a01b03811681146200036557600080fd5b919050565b6000806000606084860312156200038057600080fd5b6200038b846200034d565b925060206200039c8186016200034d565b60408601519093506001600160401b0380821115620003ba57600080fd5b818701915087601f830112620003cf57600080fd5b815181811115620003e457620003e4620001dc565b604051601f8201601f19908116603f011681019083821181831017156200040f576200040f620001dc565b816040528281528a868487010111156200042857600080fd5b600093505b828410156200044c57848401860151818501870152928501926200042d565b60008684830101528096505050505050509250925092565b61200480620004746000396000f3fe6080604052600436106101ee5760003560e01c80637ad3def21161010d578063b88d4fde116100a0578063e6f12af91161006f578063e6f12af9146105a3578063e985e9c5146105c3578063f2fde38b146105e3578063fc0c546a14610603578063fcf4ed931461062357600080fd5b8063b88d4fde14610530578063c87b56dd14610543578063d122e93a14610563578063d5534b6a1461058357600080fd5b8063952f4023116100dc578063952f4023146104a857806395d89b41146104db5780639cf60028146104f0578063a22cb4651461051057600080fd5b80637ad3def21461042a5780637dc0d1d01461044a5780638556646b1461046a5780638da5cb5b1461048a57600080fd5b806342842e0e116101855780636c0360eb116101545780636c0360eb1461039a5780636d0f220e146103af57806370a08231146103f5578063715018a61461041557600080fd5b806342842e0e1461030657806355f804b3146103195780636352211e1461033957806367883f4b1461035957600080fd5b8063101b0fbc116101c1578063101b0fbc1461029757806318160ddd146102ac5780631cb44dfc146102d357806323b872dd146102f357600080fd5b806301ffc9a7146101f357806306fdde0314610228578063081812fc1461024a578063095ea7b314610282575b600080fd5b3480156101ff57600080fd5b5061021361020e366004611945565b610643565b60405190151581526020015b60405180910390f35b34801561023457600080fd5b5061023d610695565b60405161021f91906119b2565b34801561025657600080fd5b5061026a6102653660046119c5565b610727565b6040516001600160a01b03909116815260200161021f565b6102956102903660046119fa565b61076b565b005b3480156102a357600080fd5b5061023d61080b565b3480156102b857600080fd5b5060015460005403600019015b60405190815260200161021f565b3480156102df57600080fd5b506102956102ee366004611a24565b610899565b610295610301366004611a3f565b6108c3565b610295610314366004611a3f565b610a5c565b34801561032557600080fd5b50610295610334366004611b07565b610a7c565b34801561034557600080fd5b5061026a6103543660046119c5565b610a94565b34801561036557600080fd5b50610379610374366004611b5f565b610a9f565b60408051825160ff908116825260209384015116928101929092520161021f565b3480156103a657600080fd5b5061023d610b1f565b3480156103bb57600080fd5b506103e16103ca3660046119c5565b60096020526000908152604090205462ffffff1681565b60405162ffffff909116815260200161021f565b34801561040157600080fd5b506102c5610410366004611a24565b610b2c565b34801561042157600080fd5b50610295610b7b565b34801561043657600080fd5b50610295610445366004611a24565b610b8f565b34801561045657600080fd5b50600a5461026a906001600160a01b031681565b34801561047657600080fd5b506102c5610485366004611b5f565b610bb9565b34801561049657600080fd5b506008546001600160a01b031661026a565b3480156104b457600080fd5b50600b546104c990600160a01b900460ff1681565b60405160ff909116815260200161021f565b3480156104e757600080fd5b5061023d610c2a565b3480156104fc57600080fd5b506104c961050b366004611b5f565b610c39565b34801561051c57600080fd5b5061029561052b366004611b8a565b610caa565b61029561053e366004611bc1565b610d16565b34801561054f57600080fd5b5061023d61055e3660046119c5565b610d60565b34801561056f57600080fd5b506102c561057e366004611b5f565b610de7565b34801561058f57600080fd5b5061029561059e366004611b5f565b610e1b565b3480156105af57600080fd5b506102956105be366004611c3d565b610e43565b3480156105cf57600080fd5b506102136105de366004611c88565b611321565b3480156105ef57600080fd5b506102956105fe366004611a24565b61134f565b34801561060f57600080fd5b50600b5461026a906001600160a01b031681565b34801561062f57600080fd5b506104c961063e366004611b5f565b6113c8565b60006301ffc9a760e01b6001600160e01b03198316148061067457506380ac58cd60e01b6001600160e01b03198316145b8061068f5750635b5e139f60e01b6001600160e01b03198316145b92915050565b6060600280546106a490611cbb565b80601f01602080910402602001604051908101604052809291908181526020018280546106d090611cbb565b801561071d5780601f106106f25761010080835404028352916020019161071d565b820191906000526020600020905b81548152906001019060200180831161070057829003601f168201915b5050505050905090565b6000610732826113fc565b61074f576040516333d1c03960e21b815260040160405180910390fd5b506000908152600660205260409020546001600160a01b031690565b600061077682610a94565b9050336001600160a01b038216146107af576107928133611321565b6107af576040516367d9dca160e11b815260040160405180910390fd5b60008281526006602052604080822080546001600160a01b0319166001600160a01b0387811691821790925591518593918516917f8c5be1e5ebec7d5bd14f71427d1e84f3dd0314c0f7b2291e5b200ac8c7c3b92591a4505050565b600d805461081890611cbb565b80601f016020809104026020016040519081016040528092919081815260200182805461084490611cbb565b80156108915780601f1061086657610100808354040283529160200191610891565b820191906000526020600020905b81548152906001019060200180831161087457829003601f168201915b505050505081565b6108a1611431565b600a80546001600160a01b0319166001600160a01b0392909216919091179055565b60006108ce8261148b565b9050836001600160a01b0316816001600160a01b0316146109015760405162a1148160e81b815260040160405180910390fd5b60008281526006602052604090208054338082146001600160a01b0388169091141761094e576109318633611321565b61094e57604051632ce44b5f60e11b815260040160405180910390fd5b6001600160a01b03851661097557604051633a954ecd60e21b815260040160405180910390fd5b801561098057600082555b6001600160a01b038681166000908152600560205260408082208054600019019055918716808252919020805460010190554260a01b17600160e11b17600085815260046020526040812091909155600160e11b84169003610a1257600184016000818152600460205260408120549003610a10576000548114610a105760008181526004602052604090208490555b505b83856001600160a01b0316876001600160a01b03167fddf252ad1be2c89b69c2b068fc378daa952ba7f163c4a11628f55a4df523b3ef60405160405180910390a45b505050505050565b610a7783838360405180602001604052806000815250610d16565b505050565b610a84611431565b600c610a908282611d3b565b5050565b600061068f8261148b565b60408051808201825260008082526020820152600a5491516367883f4b60e01b815260ff8416600482015290916001600160a01b0316906367883f4b906024016040805180830381865afa158015610afb573d6000803e3d6000fd5b505050506040513d601f19601f8201168201806040525081019061068f9190611dfb565b600c805461081890611cbb565b60006001600160a01b038216610b55576040516323d3ad8160e21b815260040160405180910390fd5b506001600160a01b031660009081526005602052604090205467ffffffffffffffff1690565b610b83611431565b610b8d6000611501565b565b610b97611431565b600b80546001600160a01b0319166001600160a01b0392909216919091179055565b600a54604051638556646b60e01b815260ff831660048201526000916001600160a01b031690638556646b906024015b602060405180830381865afa158015610c06573d6000803e3d6000fd5b505050506040513d601f19601f8201168201806040525081019061068f9190611e5a565b6060600380546106a490611cbb565b600a5460405163139ec00560e31b815260ff831660048201526000916001600160a01b031690639cf60028906024015b602060405180830381865afa158015610c86573d6000803e3d6000fd5b505050506040513d601f19601f8201168201806040525081019061068f9190611e73565b3360008181526007602090815260408083206001600160a01b03871680855290835292819020805460ff191686151590811790915590519081529192917f17307eab39ab6107e8899845ad3d59bd9653f200f220920489ca2b5937696c31910160405180910390a35050565b610d218484846108c3565b6001600160a01b0383163b15610d5a57610d3d84848484611553565b610d5a576040516368d2bf6b60e11b815260040160405180910390fd5b50505050565b6060610d6b826113fc565b610d8857604051630a14c4b560e41b815260040160405180910390fd5b600c8054610d9590611cbb565b9050600003610db3576040518060200160405280600081525061068f565b600c610dbe8361163f565b600d604051602001610dd293929190611f03565b60405160208183030381529060405292915050565b600a54604051636891749d60e11b815260ff831660048201526000916001600160a01b03169063d122e93a90602401610be9565b610e23611431565b600b805460ff909216600160a01b0260ff60a01b19909216919091179055565b60008360ff16118015610e5a575060148360ff1611155b610eab5760405162461bcd60e51b815260206004820152601f60248201527f4d61696e20647269766572206e756d626572206f7574206f662072616e67650060448201526064015b60405180910390fd5b60008260ff16118015610ec2575060148260ff1611155b610f1a5760405162461bcd60e51b8152602060048201526024808201527f5365636f6e6461727920647269766572206e756d626572206f7574206f662072604482015263616e676560e01b6064820152608401610ea2565b60008160ff16118015610f315750600a8160ff1611155b610f7d5760405162461bcd60e51b815260206004820152601860248201527f5465616d206e756d626572206f7574206f662072616e676500000000000000006044820152606401610ea2565b600a54604051636891749d60e11b815260ff851660048201526000916001600160a01b03169063d122e93a90602401602060405180830381865afa158015610fc9573d6000803e3d6000fd5b505050506040513d601f19601f82011682018060405250810190610fed9190611e5a565b600a54604051636891749d60e11b815260ff861660048201529192506000916001600160a01b039091169063d122e93a90602401602060405180830381865afa15801561103e573d6000803e3d6000fd5b505050506040513d601f19601f820116820180604052508101906110629190611e5a565b600a54604051638556646b60e01b815260ff861660048201529192506000916001600160a01b0390911690638556646b90602401602060405180830381865afa1580156110b3573d6000803e3d6000fd5b505050506040513d601f19601f820116820180604052508101906110d79190611e5a565b90506000816110e68486611f36565b6110f09190611f36565b600b546040516370a0823160e01b815233600482015291925082916001600160a01b03909116906370a0823190602401602060405180830381865afa15801561113d573d6000803e3d6000fd5b505050506040513d601f19601f820116820180604052508101906111619190611e5a565b10156111af5760405162461bcd60e51b815260206004820152601960248201527f4e6f7420656e6f75676820746f6b656e2062616c616e63652e000000000000006044820152606401610ea2565b600b54604051636eb1769f60e11b815233600482015230602482015282916001600160a01b03169063dd62ed3e90604401602060405180830381865afa1580156111fd573d6000803e3d6000fd5b505050506040513d601f19601f820116820180604052508101906112219190611e5a565b101561126f5760405162461bcd60e51b815260206004820152601960248201527f436865636b2074686520746f6b656e20616c6c6f77616e6365000000000000006044820152606401610ea2565b600b546040516323b872dd60e01b8152336004820152306024820152604481018390526001600160a01b03909116906323b872dd906064016020604051808303816000875af11580156112c6573d6000803e3d6000fd5b505050506040513d601f19601f820116820180604052508101906112ea9190611f57565b5060006113006001546000546000199190030190565b61130b906001611f36565b905061131733826116d2565b5050505050505050565b6001600160a01b03918216600090815260076020908152604080832093909416825291909152205460ff1690565b611357611431565b6001600160a01b0381166113bc5760405162461bcd60e51b815260206004820152602660248201527f4f776e61626c653a206e6577206f776e657220697320746865207a65726f206160448201526564647265737360d01b6064820152608401610ea2565b6113c581611501565b50565b600a5460405163fcf4ed9360e01b815260ff831660048201526000916001600160a01b03169063fcf4ed9390602401610c69565b600081600111158015611410575060005482105b801561068f575050600090815260046020526040902054600160e01b161590565b6008546001600160a01b03163314610b8d5760405162461bcd60e51b815260206004820181905260248201527f4f776e61626c653a2063616c6c6572206973206e6f7420746865206f776e65726044820152606401610ea2565b600081806001116114e8576000548110156114e85760008181526004602052604081205490600160e01b821690036114e6575b806000036114df5750600019016000818152600460205260409020546114be565b9392505050565b505b604051636f96cda160e11b815260040160405180910390fd5b600880546001600160a01b038381166001600160a01b0319831681179093556040519116919082907f8be0079c531659141344cd1fd0a4f28419497f9722a3daafe3b4186f6b6457e090600090a35050565b604051630a85bd0160e11b81526000906001600160a01b0385169063150b7a0290611588903390899088908890600401611f74565b6020604051808303816000875af19250505080156115c3575060408051601f3d908101601f191682019092526115c091810190611fb1565b60015b611621573d8080156115f1576040519150601f19603f3d011682016040523d82523d6000602084013e6115f6565b606091505b508051600003611619576040516368d2bf6b60e11b815260040160405180910390fd5b805181602001fd5b6001600160e01b031916630a85bd0160e11b1490505b949350505050565b6060600061164c836116ec565b600101905060008167ffffffffffffffff81111561166c5761166c611a7b565b6040519080825280601f01601f191660200182016040528015611696576020820181803683370190505b5090508181016020015b600019016f181899199a1a9b1b9c1cb0b131b232b360811b600a86061a8153600a85049450846116a057509392505050565b610a908282604051806020016040528060008152506117c4565b60008072184f03e93ff9f4daa797ed6e38ed64bf6a1f0160401b831061172b5772184f03e93ff9f4daa797ed6e38ed64bf6a1f0160401b830492506040015b6d04ee2d6d415b85acef81000000008310611757576d04ee2d6d415b85acef8100000000830492506020015b662386f26fc10000831061177557662386f26fc10000830492506010015b6305f5e100831061178d576305f5e100830492506008015b61271083106117a157612710830492506004015b606483106117b3576064830492506002015b600a831061068f5760010192915050565b6117ce8383611831565b6001600160a01b0383163b15610a77576000548281035b6117f86000868380600101945086611553565b611815576040516368d2bf6b60e11b815260040160405180910390fd5b8181106117e557816000541461182a57600080fd5b5050505050565b60008054908290036118565760405163b562e8dd60e01b815260040160405180910390fd5b6001600160a01b03831660008181526005602090815260408083208054680100000000000000018802019055848352600490915281206001851460e11b4260a01b178317905582840190839083907fddf252ad1be2c89b69c2b068fc378daa952ba7f163c4a11628f55a4df523b3ef8180a4600183015b81811461190557808360007fddf252ad1be2c89b69c2b068fc378daa952ba7f163c4a11628f55a4df523b3ef600080a46001016118cd565b508160000361192657604051622e076360e81b815260040160405180910390fd5b60005550505050565b6001600160e01b0319811681146113c557600080fd5b60006020828403121561195757600080fd5b81356114df8161192f565b60005b8381101561197d578181015183820152602001611965565b50506000910152565b6000815180845261199e816020860160208601611962565b601f01601f19169290920160200192915050565b6020815260006114df6020830184611986565b6000602082840312156119d757600080fd5b5035919050565b80356001600160a01b03811681146119f557600080fd5b919050565b60008060408385031215611a0d57600080fd5b611a16836119de565b946020939093013593505050565b600060208284031215611a3657600080fd5b6114df826119de565b600080600060608486031215611a5457600080fd5b611a5d846119de565b9250611a6b602085016119de565b9150604084013590509250925092565b634e487b7160e01b600052604160045260246000fd5b600067ffffffffffffffff80841115611aac57611aac611a7b565b604051601f8501601f19908116603f01168101908282118183101715611ad457611ad4611a7b565b81604052809350858152868686011115611aed57600080fd5b858560208301376000602087830101525050509392505050565b600060208284031215611b1957600080fd5b813567ffffffffffffffff811115611b3057600080fd5b8201601f81018413611b4157600080fd5b61163784823560208401611a91565b60ff811681146113c557600080fd5b600060208284031215611b7157600080fd5b81356114df81611b50565b80151581146113c557600080fd5b60008060408385031215611b9d57600080fd5b611ba6836119de565b91506020830135611bb681611b7c565b809150509250929050565b60008060008060808587031215611bd757600080fd5b611be0856119de565b9350611bee602086016119de565b925060408501359150606085013567ffffffffffffffff811115611c1157600080fd5b8501601f81018713611c2257600080fd5b611c3187823560208401611a91565b91505092959194509250565b600080600060608486031215611c5257600080fd5b8335611c5d81611b50565b92506020840135611c6d81611b50565b91506040840135611c7d81611b50565b809150509250925092565b60008060408385031215611c9b57600080fd5b611ca4836119de565b9150611cb2602084016119de565b90509250929050565b600181811c90821680611ccf57607f821691505b602082108103611cef57634e487b7160e01b600052602260045260246000fd5b50919050565b601f821115610a7757600081815260208120601f850160051c81016020861015611d1c5750805b601f850160051c820191505b81811015610a5457828155600101611d28565b815167ffffffffffffffff811115611d5557611d55611a7b565b611d6981611d638454611cbb565b84611cf5565b602080601f831160018114611d9e5760008415611d865750858301515b600019600386901b1c1916600185901b178555610a54565b600085815260208120601f198616915b82811015611dcd57888601518255948401946001909101908401611dae565b5085821015611deb5787850151600019600388901b60f8161c191681555b5050505050600190811b01905550565b600060408284031215611e0d57600080fd5b6040516040810181811067ffffffffffffffff82111715611e3057611e30611a7b565b6040528251611e3e81611b50565b81526020830151611e4e81611b50565b60208201529392505050565b600060208284031215611e6c57600080fd5b5051919050565b600060208284031215611e8557600080fd5b81516114df81611b50565b60008154611e9d81611cbb565b60018281168015611eb55760018114611eca57611ef9565b60ff1984168752821515830287019450611ef9565b8560005260208060002060005b85811015611ef05781548a820152908401908201611ed7565b50505082870194505b5050505092915050565b6000611f0f8286611e90565b8451611f1f818360208901611962565b611f2b81830186611e90565b979650505050505050565b8082018082111561068f57634e487b7160e01b600052601160045260246000fd5b600060208284031215611f6957600080fd5b81516114df81611b7c565b6001600160a01b0385811682528416602082015260408101839052608060608201819052600090611fa790830184611986565b9695505050505050565b600060208284031215611fc357600080fd5b81516114df8161192f56fea2646970667358221220b464f6f239e8a9d7e0f855a6d12b4372a9f5682b97b18453c54fdb2ca7b9601664736f6c63430008110033","opcodes":"PUSH1 0xC0 PUSH1 0x40 MSTORE PUSH1 0x5 PUSH1 0x80 SWAP1 DUP2 MSTORE PUSH5 0x173539B7B7 PUSH1 0xD9 SHL PUSH1 0xA0 MSTORE PUSH1 0xD SWAP1 PUSH3 0x26 SWAP1 DUP3 PUSH3 0x281 JUMP JUMPDEST POP CALLVALUE DUP1 ISZERO PUSH3 0x34 JUMPI PUSH1 0x0 DUP1 REVERT JUMPDEST POP PUSH1 0x40 MLOAD PUSH3 0x2478 CODESIZE SUB DUP1 PUSH3 0x2478 DUP4 CODECOPY DUP2 ADD PUSH1 0x40 DUP2 SWAP1 MSTORE PUSH3 0x57 SWAP2 PUSH3 0x36A JUMP JUMPDEST PUSH1 0x40 MLOAD DUP1 PUSH1 0x40 ADD PUSH1 0x40 MSTORE DUP1 PUSH1 0xA DUP2 MSTORE PUSH1 0x20 ADD PUSH10 0x46616E746173794F6E65 PUSH1 0xB0 SHL DUP2 MSTORE POP PUSH1 0x40 MLOAD DUP1 PUSH1 0x40 ADD PUSH1 0x40 MSTORE DUP1 PUSH1 0x3 DUP2 MSTORE PUSH1 0x20 ADD PUSH3 0x2320A7 PUSH1 0xE9 SHL DUP2 MSTORE POP DUP2 PUSH1 0x2 SWAP1 DUP2 PUSH3 0xA7 SWAP2 SWAP1 PUSH3 0x281 JUMP JUMPDEST POP PUSH1 0x3 PUSH3 0xB6 DUP3 DUP3 PUSH3 0x281 JUMP JUMPDEST POP POP PUSH1 0x1 PUSH1 0x0 SSTORE POP PUSH3 0xC9 CALLER PUSH3 0x10D JUMP JUMPDEST PUSH1 0xA DUP1 SLOAD PUSH1 0x1 PUSH1 0x1 PUSH1 0xA0 SHL SUB DUP1 DUP7 AND PUSH1 0x1 PUSH1 0x1 PUSH1 0xA0 SHL SUB NOT SWAP3 DUP4 AND OR SWAP1 SWAP3 SSTORE PUSH1 0xB DUP1 SLOAD SWAP3 DUP6 AND SWAP3 SWAP1 SWAP2 AND SWAP2 SWAP1 SWAP2 OR SWAP1 SSTORE PUSH3 0x104 DUP2 PUSH3 0x15F JUMP JUMPDEST POP POP POP PUSH3 0x464 JUMP JUMPDEST PUSH1 0x8 DUP1 SLOAD PUSH1 0x1 PUSH1 0x1 PUSH1 0xA0 SHL SUB DUP4 DUP2 AND PUSH1 0x1 PUSH1 0x1 PUSH1 0xA0 SHL SUB NOT DUP4 AND DUP2 OR SWAP1 SWAP4 SSTORE PUSH1 0x40 MLOAD SWAP2 AND SWAP2 SWAP1 DUP3 SWAP1 PUSH32 0x8BE0079C531659141344CD1FD0A4F28419497F9722A3DAAFE3B4186F6B6457E0 SWAP1 PUSH1 0x0 SWAP1 LOG3 POP POP JUMP JUMPDEST PUSH3 0x169 PUSH3 0x17B JUMP JUMPDEST PUSH1 0xC PUSH3 0x177 DUP3 DUP3 PUSH3 0x281 JUMP JUMPDEST POP POP JUMP JUMPDEST PUSH1 0x8 SLOAD PUSH1 0x1 PUSH1 0x1 PUSH1 0xA0 SHL SUB AND CALLER EQ PUSH3 0x1DA JUMPI PUSH1 0x40 MLOAD PUSH3 0x461BCD PUSH1 0xE5 SHL DUP2 MSTORE PUSH1 0x20 PUSH1 0x4 DUP3 ADD DUP2 SWAP1 MSTORE PUSH1 0x24 DUP3 ADD MSTORE PUSH32 0x4F776E61626C653A2063616C6C6572206973206E6F7420746865206F776E6572 PUSH1 0x44 DUP3 ADD MSTORE PUSH1 0x64 ADD PUSH1 0x40 MLOAD DUP1 SWAP2 SUB SWAP1 REVERT JUMPDEST JUMP JUMPDEST PUSH4 0x4E487B71 PUSH1 0xE0 SHL PUSH1 0x0 MSTORE PUSH1 0x41 PUSH1 0x4 MSTORE PUSH1 0x24 PUSH1 0x0 REVERT JUMPDEST PUSH1 0x1 DUP2 DUP2 SHR SWAP1 DUP3 AND DUP1 PUSH3 0x207 JUMPI PUSH1 0x7F DUP3 AND SWAP2 POP JUMPDEST PUSH1 0x20 DUP3 LT DUP2 SUB PUSH3 0x228 JUMPI PUSH4 0x4E487B71 PUSH1 0xE0 SHL PUSH1 0x0 MSTORE PUSH1 0x22 PUSH1 0x4 MSTORE PUSH1 0x24 PUSH1 0x0 REVERT JUMPDEST POP SWAP2 SWAP1 POP JUMP JUMPDEST PUSH1 0x1F DUP3 GT ISZERO PUSH3 0x27C JUMPI PUSH1 0x0 DUP2 DUP2 MSTORE PUSH1 0x20 DUP2 KECCAK256 PUSH1 0x1F DUP6 ADD PUSH1 0x5 SHR DUP2 ADD PUSH1 0x20 DUP7 LT ISZERO PUSH3 0x257 JUMPI POP DUP1 JUMPDEST PUSH1 0x1F DUP6 ADD PUSH1 0x5 SHR DUP3 ADD SWAP2 POP JUMPDEST DUP2 DUP2 LT ISZERO PUSH3 0x278 JUMPI DUP3 DUP2 SSTORE PUSH1 0x1 ADD PUSH3 0x263 JUMP JUMPDEST POP POP POP JUMPDEST POP POP POP JUMP JUMPDEST DUP2 MLOAD PUSH1 0x1 PUSH1 0x1 PUSH1 0x40 SHL SUB DUP2 GT ISZERO PUSH3 0x29D JUMPI PUSH3 0x29D PUSH3 0x1DC JUMP JUMPDEST PUSH3 0x2B5 DUP2 PUSH3 0x2AE DUP5 SLOAD PUSH3 0x1F2 JUMP JUMPDEST DUP5 PUSH3 0x22E JUMP JUMPDEST PUSH1 0x20 DUP1 PUSH1 0x1F DUP4 GT PUSH1 0x1 DUP2 EQ PUSH3 0x2ED JUMPI PUSH1 0x0 DUP5 ISZERO PUSH3 0x2D4 JUMPI POP DUP6 DUP4 ADD MLOAD JUMPDEST PUSH1 0x0 NOT PUSH1 0x3 DUP7 SWAP1 SHL SHR NOT AND PUSH1 0x1 DUP6 SWAP1 SHL OR DUP6 SSTORE PUSH3 0x278 JUMP JUMPDEST PUSH1 0x0 DUP6 DUP2 MSTORE PUSH1 0x20 DUP2 KECCAK256 PUSH1 0x1F NOT DUP7 AND SWAP2 JUMPDEST DUP3 DUP2 LT ISZERO PUSH3 0x31E JUMPI DUP9 DUP7 ADD MLOAD DUP3 SSTORE SWAP5 DUP5 ADD SWAP5 PUSH1 0x1 SWAP1 SWAP2 ADD SWAP1 DUP5 ADD PUSH3 0x2FD JUMP JUMPDEST POP DUP6 DUP3 LT ISZERO PUSH3 0x33D JUMPI DUP8 DUP6 ADD MLOAD PUSH1 0x0 NOT PUSH1 0x3 DUP9 SWAP1 SHL PUSH1 0xF8 AND SHR NOT AND DUP2 SSTORE JUMPDEST POP POP POP POP POP PUSH1 0x1 SWAP1 DUP2 SHL ADD SWAP1 SSTORE POP JUMP JUMPDEST DUP1 MLOAD PUSH1 0x1 PUSH1 0x1 PUSH1 0xA0 SHL SUB DUP2 AND DUP2 EQ PUSH3 0x365 JUMPI PUSH1 0x0 DUP1 REVERT JUMPDEST SWAP2 SWAP1 POP JUMP JUMPDEST PUSH1 0x0 DUP1 PUSH1 0x0 PUSH1 0x60 DUP5 DUP7 SUB SLT ISZERO PUSH3 0x380 JUMPI PUSH1 0x0 DUP1 REVERT JUMPDEST PUSH3 0x38B DUP5 PUSH3 0x34D JUMP JUMPDEST SWAP3 POP PUSH1 0x20 PUSH3 0x39C DUP2 DUP7 ADD PUSH3 0x34D JUMP JUMPDEST PUSH1 0x40 DUP7 ADD MLOAD SWAP1 SWAP4 POP PUSH1 0x1 PUSH1 0x1 PUSH1 0x40 SHL SUB DUP1 DUP3 GT ISZERO PUSH3 0x3BA JUMPI PUSH1 0x0 DUP1 REVERT JUMPDEST DUP2 DUP8 ADD SWAP2 POP DUP8 PUSH1 0x1F DUP4 ADD SLT PUSH3 0x3CF JUMPI PUSH1 0x0 DUP1 REVERT JUMPDEST DUP2 MLOAD DUP2 DUP2 GT ISZERO PUSH3 0x3E4 JUMPI PUSH3 0x3E4 PUSH3 0x1DC JUMP JUMPDEST PUSH1 0x40 MLOAD PUSH1 0x1F DUP3 ADD PUSH1 0x1F NOT SWAP1 DUP2 AND PUSH1 0x3F ADD AND DUP2 ADD SWAP1 DUP4 DUP3 GT DUP2 DUP4 LT OR ISZERO PUSH3 0x40F JUMPI PUSH3 0x40F PUSH3 0x1DC JUMP JUMPDEST DUP2 PUSH1 0x40 MSTORE DUP3 DUP2 MSTORE DUP11 DUP7 DUP5 DUP8 ADD ADD GT ISZERO PUSH3 0x428 JUMPI PUSH1 0x0 DUP1 REVERT JUMPDEST PUSH1 0x0 SWAP4 POP JUMPDEST DUP3 DUP5 LT ISZERO PUSH3 0x44C JUMPI DUP5 DUP5 ADD DUP7 ADD MLOAD DUP2 DUP6 ADD DUP8 ADD MSTORE SWAP3 DUP6 ADD SWAP3 PUSH3 0x42D JUMP JUMPDEST PUSH1 0x0 DUP7 DUP5 DUP4 ADD ADD MSTORE DUP1 SWAP7 POP POP POP POP POP POP POP SWAP3 POP SWAP3 POP SWAP3 JUMP JUMPDEST PUSH2 0x2004 DUP1 PUSH3 0x474 PUSH1 0x0 CODECOPY PUSH1 0x0 RETURN INVALID PUSH1 0x80 PUSH1 0x40 MSTORE PUSH1 0x4 CALLDATASIZE LT PUSH2 0x1EE JUMPI PUSH1 0x0 CALLDATALOAD PUSH1 0xE0 SHR DUP1 PUSH4 0x7AD3DEF2 GT PUSH2 0x10D JUMPI DUP1 PUSH4 0xB88D4FDE GT PUSH2 0xA0 JUMPI DUP1 PUSH4 0xE6F12AF9 GT PUSH2 0x6F JUMPI DUP1 PUSH4 0xE6F12AF9 EQ PUSH2 0x5A3 JUMPI DUP1 PUSH4 0xE985E9C5 EQ PUSH2 0x5C3 JUMPI DUP1 PUSH4 0xF2FDE38B EQ PUSH2 0x5E3 JUMPI DUP1 PUSH4 0xFC0C546A EQ PUSH2 0x603 JUMPI DUP1 PUSH4 0xFCF4ED93 EQ PUSH2 0x623 JUMPI PUSH1 0x0 DUP1 REVERT JUMPDEST DUP1 PUSH4 0xB88D4FDE EQ PUSH2 0x530 JUMPI DUP1 PUSH4 0xC87B56DD EQ PUSH2 0x543 JUMPI DUP1 PUSH4 0xD122E93A EQ PUSH2 0x563 JUMPI DUP1 PUSH4 0xD5534B6A EQ PUSH2 0x583 JUMPI PUSH1 0x0 DUP1 REVERT JUMPDEST DUP1 PUSH4 0x952F4023 GT PUSH2 0xDC JUMPI DUP1 PUSH4 0x952F4023 EQ PUSH2 0x4A8 JUMPI DUP1 PUSH4 0x95D89B41 EQ PUSH2 0x4DB JUMPI DUP1 PUSH4 0x9CF60028 EQ PUSH2 0x4F0 JUMPI DUP1 PUSH4 0xA22CB465 EQ PUSH2 0x510 JUMPI PUSH1 0x0 DUP1 REVERT JUMPDEST DUP1 PUSH4 0x7AD3DEF2 EQ PUSH2 0x42A JUMPI DUP1 PUSH4 0x7DC0D1D0 EQ PUSH2 0x44A JUMPI DUP1 PUSH4 0x8556646B EQ PUSH2 0x46A JUMPI DUP1 PUSH4 0x8DA5CB5B EQ PUSH2 0x48A JUMPI PUSH1 0x0 DUP1 REVERT JUMPDEST DUP1 PUSH4 0x42842E0E GT PUSH2 0x185 JUMPI DUP1 PUSH4 0x6C0360EB GT PUSH2 0x154 JUMPI DUP1 PUSH4 0x6C0360EB EQ PUSH2 0x39A JUMPI DUP1 PUSH4 0x6D0F220E EQ PUSH2 0x3AF JUMPI DUP1 PUSH4 0x70A08231 EQ PUSH2 0x3F5 JUMPI DUP1 PUSH4 0x715018A6 EQ PUSH2 0x415 JUMPI PUSH1 0x0 DUP1 REVERT JUMPDEST DUP1 PUSH4 0x42842E0E EQ PUSH2 0x306 JUMPI DUP1 PUSH4 0x55F804B3 EQ PUSH2 0x319 JUMPI DUP1 PUSH4 0x6352211E EQ PUSH2 0x339 JUMPI DUP1 PUSH4 0x67883F4B EQ PUSH2 0x359 JUMPI PUSH1 0x0 DUP1 REVERT JUMPDEST DUP1 PUSH4 0x101B0FBC GT PUSH2 0x1C1 JUMPI DUP1 PUSH4 0x101B0FBC EQ PUSH2 0x297 JUMPI DUP1 PUSH4 0x18160DDD EQ PUSH2 0x2AC JUMPI DUP1 PUSH4 0x1CB44DFC EQ PUSH2 0x2D3 JUMPI DUP1 PUSH4 0x23B872DD EQ PUSH2 0x2F3 JUMPI PUSH1 0x0 DUP1 REVERT JUMPDEST DUP1 PUSH4 0x1FFC9A7 EQ PUSH2 0x1F3 JUMPI DUP1 PUSH4 0x6FDDE03 EQ PUSH2 0x228 JUMPI DUP1 PUSH4 0x81812FC EQ PUSH2 0x24A JUMPI DUP1 PUSH4 0x95EA7B3 EQ PUSH2 0x282 JUMPI JUMPDEST PUSH1 0x0 DUP1 REVERT JUMPDEST CALLVALUE DUP1 ISZERO PUSH2 0x1FF JUMPI PUSH1 0x0 DUP1 REVERT JUMPDEST POP PUSH2 0x213 PUSH2 0x20E CALLDATASIZE PUSH1 0x4 PUSH2 0x1945 JUMP JUMPDEST PUSH2 0x643 JUMP JUMPDEST PUSH1 0x40 MLOAD SWAP1 ISZERO ISZERO DUP2 MSTORE PUSH1 0x20 ADD JUMPDEST PUSH1 0x40 MLOAD DUP1 SWAP2 SUB SWAP1 RETURN JUMPDEST CALLVALUE DUP1 ISZERO PUSH2 0x234 JUMPI PUSH1 0x0 DUP1 REVERT JUMPDEST POP PUSH2 0x23D PUSH2 0x695 JUMP JUMPDEST PUSH1 0x40 MLOAD PUSH2 0x21F SWAP2 SWAP1 PUSH2 0x19B2 JUMP JUMPDEST CALLVALUE DUP1 ISZERO PUSH2 0x256 JUMPI PUSH1 0x0 DUP1 REVERT JUMPDEST POP PUSH2 0x26A PUSH2 0x265 CALLDATASIZE PUSH1 0x4 PUSH2 0x19C5 JUMP JUMPDEST PUSH2 0x727 JUMP JUMPDEST PUSH1 0x40 MLOAD PUSH1 0x1 PUSH1 0x1 PUSH1 0xA0 SHL SUB SWAP1 SWAP2 AND DUP2 MSTORE PUSH1 0x20 ADD PUSH2 0x21F JUMP JUMPDEST PUSH2 0x295 PUSH2 0x290 CALLDATASIZE PUSH1 0x4 PUSH2 0x19FA JUMP JUMPDEST PUSH2 0x76B JUMP JUMPDEST STOP JUMPDEST CALLVALUE DUP1 ISZERO PUSH2 0x2A3 JUMPI PUSH1 0x0 DUP1 REVERT JUMPDEST POP PUSH2 0x23D PUSH2 0x80B JUMP JUMPDEST CALLVALUE DUP1 ISZERO PUSH2 0x2B8 JUMPI PUSH1 0x0 DUP1 REVERT JUMPDEST POP PUSH1 0x1 SLOAD PUSH1 0x0 SLOAD SUB PUSH1 0x0 NOT ADD JUMPDEST PUSH1 0x40 MLOAD SWAP1 DUP2 MSTORE PUSH1 0x20 ADD PUSH2 0x21F JUMP JUMPDEST CALLVALUE DUP1 ISZERO PUSH2 0x2DF JUMPI PUSH1 0x0 DUP1 REVERT JUMPDEST POP PUSH2 0x295 PUSH2 0x2EE CALLDATASIZE PUSH1 0x4 PUSH2 0x1A24 JUMP JUMPDEST PUSH2 0x899 JUMP JUMPDEST PUSH2 0x295 PUSH2 0x301 CALLDATASIZE PUSH1 0x4 PUSH2 0x1A3F JUMP JUMPDEST PUSH2 0x8C3 JUMP JUMPDEST PUSH2 0x295 PUSH2 0x314 CALLDATASIZE PUSH1 0x4 PUSH2 0x1A3F JUMP JUMPDEST PUSH2 0xA5C JUMP JUMPDEST CALLVALUE DUP1 ISZERO PUSH2 0x325 JUMPI PUSH1 0x0 DUP1 REVERT JUMPDEST POP PUSH2 0x295 PUSH2 0x334 CALLDATASIZE PUSH1 0x4 PUSH2 0x1B07 JUMP JUMPDEST PUSH2 0xA7C JUMP JUMPDEST CALLVALUE DUP1 ISZERO PUSH2 0x345 JUMPI PUSH1 0x0 DUP1 REVERT JUMPDEST POP PUSH2 0x26A PUSH2 0x354 CALLDATASIZE PUSH1 0x4 PUSH2 0x19C5 JUMP JUMPDEST PUSH2 0xA94 JUMP JUMPDEST CALLVALUE DUP1 ISZERO PUSH2 0x365 JUMPI PUSH1 0x0 DUP1 REVERT JUMPDEST POP PUSH2 0x379 PUSH2 0x374 CALLDATASIZE PUSH1 0x4 PUSH2 0x1B5F JUMP JUMPDEST PUSH2 0xA9F JUMP JUMPDEST PUSH1 0x40 DUP1 MLOAD DUP3 MLOAD PUSH1 0xFF SWAP1 DUP2 AND DUP3 MSTORE PUSH1 0x20 SWAP4 DUP5 ADD MLOAD AND SWAP3 DUP2 ADD SWAP3 SWAP1 SWAP3 MSTORE ADD PUSH2 0x21F JUMP JUMPDEST CALLVALUE DUP1 ISZERO PUSH2 0x3A6 JUMPI PUSH1 0x0 DUP1 REVERT JUMPDEST POP PUSH2 0x23D PUSH2 0xB1F JUMP JUMPDEST CALLVALUE DUP1 ISZERO PUSH2 0x3BB JUMPI PUSH1 0x0 DUP1 REVERT JUMPDEST POP PUSH2 0x3E1 PUSH2 0x3CA CALLDATASIZE PUSH1 0x4 PUSH2 0x19C5 JUMP JUMPDEST PUSH1 0x9 PUSH1 0x20 MSTORE PUSH1 0x0 SWAP1 DUP2 MSTORE PUSH1 0x40 SWAP1 KECCAK256 SLOAD PUSH3 0xFFFFFF AND DUP2 JUMP JUMPDEST PUSH1 0x40 MLOAD PUSH3 0xFFFFFF SWAP1 SWAP2 AND DUP2 MSTORE PUSH1 0x20 ADD PUSH2 0x21F JUMP JUMPDEST CALLVALUE DUP1 ISZERO PUSH2 0x401 JUMPI PUSH1 0x0 DUP1 REVERT JUMPDEST POP PUSH2 0x2C5 PUSH2 0x410 CALLDATASIZE PUSH1 0x4 PUSH2 0x1A24 JUMP JUMPDEST PUSH2 0xB2C JUMP JUMPDEST CALLVALUE DUP1 ISZERO PUSH2 0x421 JUMPI PUSH1 0x0 DUP1 REVERT JUMPDEST POP PUSH2 0x295 PUSH2 0xB7B JUMP JUMPDEST CALLVALUE DUP1 ISZERO PUSH2 0x436 JUMPI PUSH1 0x0 DUP1 REVERT JUMPDEST POP PUSH2 0x295 PUSH2 0x445 CALLDATASIZE PUSH1 0x4 PUSH2 0x1A24 JUMP JUMPDEST PUSH2 0xB8F JUMP JUMPDEST CALLVALUE DUP1 ISZERO PUSH2 0x456 JUMPI PUSH1 0x0 DUP1 REVERT JUMPDEST POP PUSH1 0xA SLOAD PUSH2 0x26A SWAP1 PUSH1 0x1 PUSH1 0x1 PUSH1 0xA0 SHL SUB AND DUP2 JUMP JUMPDEST CALLVALUE DUP1 ISZERO PUSH2 0x476 JUMPI PUSH1 0x0 DUP1 REVERT JUMPDEST POP PUSH2 0x2C5 PUSH2 0x485 CALLDATASIZE PUSH1 0x4 PUSH2 0x1B5F JUMP JUMPDEST PUSH2 0xBB9 JUMP JUMPDEST CALLVALUE DUP1 ISZERO PUSH2 0x496 JUMPI PUSH1 0x0 DUP1 REVERT JUMPDEST POP PUSH1 0x8 SLOAD PUSH1 0x1 PUSH1 0x1 PUSH1 0xA0 SHL SUB AND PUSH2 0x26A JUMP JUMPDEST CALLVALUE DUP1 ISZERO PUSH2 0x4B4 JUMPI PUSH1 0x0 DUP1 REVERT JUMPDEST POP PUSH1 0xB SLOAD PUSH2 0x4C9 SWAP1 PUSH1 0x1 PUSH1 0xA0 SHL SWAP1 DIV PUSH1 0xFF AND DUP2 JUMP JUMPDEST PUSH1 0x40 MLOAD PUSH1 0xFF SWAP1 SWAP2 AND DUP2 MSTORE PUSH1 0x20 ADD PUSH2 0x21F JUMP JUMPDEST CALLVALUE DUP1 ISZERO PUSH2 0x4E7 JUMPI PUSH1 0x0 DUP1 REVERT JUMPDEST POP PUSH2 0x23D PUSH2 0xC2A JUMP JUMPDEST CALLVALUE DUP1 ISZERO PUSH2 0x4FC JUMPI PUSH1 0x0 DUP1 REVERT JUMPDEST POP PUSH2 0x4C9 PUSH2 0x50B CALLDATASIZE PUSH1 0x4 PUSH2 0x1B5F JUMP JUMPDEST PUSH2 0xC39 JUMP JUMPDEST CALLVALUE DUP1 ISZERO PUSH2 0x51C JUMPI PUSH1 0x0 DUP1 REVERT JUMPDEST POP PUSH2 0x295 PUSH2 0x52B CALLDATASIZE PUSH1 0x4 PUSH2 0x1B8A JUMP JUMPDEST PUSH2 0xCAA JUMP JUMPDEST PUSH2 0x295 PUSH2 0x53E CALLDATASIZE PUSH1 0x4 PUSH2 0x1BC1 JUMP JUMPDEST PUSH2 0xD16 JUMP JUMPDEST CALLVALUE DUP1 ISZERO PUSH2 0x54F JUMPI PUSH1 0x0 DUP1 REVERT JUMPDEST POP PUSH2 0x23D PUSH2 0x55E CALLDATASIZE PUSH1 0x4 PUSH2 0x19C5 JUMP JUMPDEST PUSH2 0xD60 JUMP JUMPDEST CALLVALUE DUP1 ISZERO PUSH2 0x56F JUMPI PUSH1 0x0 DUP1 REVERT JUMPDEST POP PUSH2 0x2C5 PUSH2 0x57E CALLDATASIZE PUSH1 0x4 PUSH2 0x1B5F JUMP JUMPDEST PUSH2 0xDE7 JUMP JUMPDEST CALLVALUE DUP1 ISZERO PUSH2 0x58F JUMPI PUSH1 0x0 DUP1 REVERT JUMPDEST POP PUSH2 0x295 PUSH2 0x59E CALLDATASIZE PUSH1 0x4 PUSH2 0x1B5F JUMP JUMPDEST PUSH2 0xE1B JUMP JUMPDEST CALLVALUE DUP1 ISZERO PUSH2 0x5AF JUMPI PUSH1 0x0 DUP1 REVERT JUMPDEST POP PUSH2 0x295 PUSH2 0x5BE CALLDATASIZE PUSH1 0x4 PUSH2 0x1C3D JUMP JUMPDEST PUSH2 0xE43 JUMP JUMPDEST CALLVALUE DUP1 ISZERO PUSH2 0x5CF JUMPI PUSH1 0x0 DUP1 REVERT JUMPDEST POP PUSH2 0x213 PUSH2 0x5DE CALLDATASIZE PUSH1 0x4 PUSH2 0x1C88 JUMP JUMPDEST PUSH2 0x1321 JUMP JUMPDEST CALLVALUE DUP1 ISZERO PUSH2 0x5EF JUMPI PUSH1 0x0 DUP1 REVERT JUMPDEST POP PUSH2 0x295 PUSH2 0x5FE CALLDATASIZE PUSH1 0x4 PUSH2 0x1A24 JUMP JUMPDEST PUSH2 0x134F JUMP JUMPDEST CALLVALUE DUP1 ISZERO PUSH2 0x60F JUMPI PUSH1 0x0 DUP1 REVERT JUMPDEST POP PUSH1 0xB SLOAD PUSH2 0x26A SWAP1 PUSH1 0x1 PUSH1 0x1 PUSH1 0xA0 SHL SUB AND DUP2 JUMP JUMPDEST CALLVALUE DUP1 ISZERO PUSH2 0x62F JUMPI PUSH1 0x0 DUP1 REVERT JUMPDEST POP PUSH2 0x4C9 PUSH2 0x63E CALLDATASIZE PUSH1 0x4 PUSH2 0x1B5F JUMP JUMPDEST PUSH2 0x13C8 JUMP JUMPDEST PUSH1 0x0 PUSH4 0x1FFC9A7 PUSH1 0xE0 SHL PUSH1 0x1 PUSH1 0x1 PUSH1 0xE0 SHL SUB NOT DUP4 AND EQ DUP1 PUSH2 0x674 JUMPI POP PUSH4 0x80AC58CD PUSH1 0xE0 SHL PUSH1 0x1 PUSH1 0x1 PUSH1 0xE0 SHL SUB NOT DUP4 AND EQ JUMPDEST DUP1 PUSH2 0x68F JUMPI POP PUSH4 0x5B5E139F PUSH1 0xE0 SHL PUSH1 0x1 PUSH1 0x1 PUSH1 0xE0 SHL SUB NOT DUP4 AND EQ JUMPDEST SWAP3 SWAP2 POP POP JUMP JUMPDEST PUSH1 0x60 PUSH1 0x2 DUP1 SLOAD PUSH2 0x6A4 SWAP1 PUSH2 0x1CBB JUMP JUMPDEST DUP1 PUSH1 0x1F ADD PUSH1 0x20 DUP1 SWAP2 DIV MUL PUSH1 0x20 ADD PUSH1 0x40 MLOAD SWAP1 DUP2 ADD PUSH1 0x40 MSTORE DUP1 SWAP3 SWAP2 SWAP1 DUP2 DUP2 MSTORE PUSH1 0x20 ADD DUP3 DUP1 SLOAD PUSH2 0x6D0 SWAP1 PUSH2 0x1CBB JUMP JUMPDEST DUP1 ISZERO PUSH2 0x71D JUMPI DUP1 PUSH1 0x1F LT PUSH2 0x6F2 JUMPI PUSH2 0x100 DUP1 DUP4 SLOAD DIV MUL DUP4 MSTORE SWAP2 PUSH1 0x20 ADD SWAP2 PUSH2 0x71D JUMP JUMPDEST DUP3 ADD SWAP2 SWAP1 PUSH1 0x0 MSTORE PUSH1 0x20 PUSH1 0x0 KECCAK256 SWAP1 JUMPDEST DUP2 SLOAD DUP2 MSTORE SWAP1 PUSH1 0x1 ADD SWAP1 PUSH1 0x20 ADD DUP1 DUP4 GT PUSH2 0x700 JUMPI DUP3 SWAP1 SUB PUSH1 0x1F AND DUP3 ADD SWAP2 JUMPDEST POP POP POP POP POP SWAP1 POP SWAP1 JUMP JUMPDEST PUSH1 0x0 PUSH2 0x732 DUP3 PUSH2 0x13FC JUMP JUMPDEST PUSH2 0x74F JUMPI PUSH1 0x40 MLOAD PUSH4 0x33D1C039 PUSH1 0xE2 SHL DUP2 MSTORE PUSH1 0x4 ADD PUSH1 0x40 MLOAD DUP1 SWAP2 SUB SWAP1 REVERT JUMPDEST POP PUSH1 0x0 SWAP1 DUP2 MSTORE PUSH1 0x6 PUSH1 0x20 MSTORE PUSH1 0x40 SWAP1 KECCAK256 SLOAD PUSH1 0x1 PUSH1 0x1 PUSH1 0xA0 SHL SUB AND SWAP1 JUMP JUMPDEST PUSH1 0x0 PUSH2 0x776 DUP3 PUSH2 0xA94 JUMP JUMPDEST SWAP1 POP CALLER PUSH1 0x1 PUSH1 0x1 PUSH1 0xA0 SHL SUB DUP3 AND EQ PUSH2 0x7AF JUMPI PUSH2 0x792 DUP2 CALLER PUSH2 0x1321 JUMP JUMPDEST PUSH2 0x7AF JUMPI PUSH1 0x40 MLOAD PUSH4 0x67D9DCA1 PUSH1 0xE1 SHL DUP2 MSTORE PUSH1 0x4 ADD PUSH1 0x40 MLOAD DUP1 SWAP2 SUB SWAP1 REVERT JUMPDEST PUSH1 0x0 DUP3 DUP2 MSTORE PUSH1 0x6 PUSH1 0x20 MSTORE PUSH1 0x40 DUP1 DUP3 KECCAK256 DUP1 SLOAD PUSH1 0x1 PUSH1 0x1 PUSH1 0xA0 SHL SUB NOT AND PUSH1 0x1 PUSH1 0x1 PUSH1 0xA0 SHL SUB DUP8 DUP2 AND SWAP2 DUP3 OR SWAP1 SWAP3 SSTORE SWAP2 MLOAD DUP6 SWAP4 SWAP2 DUP6 AND SWAP2 PUSH32 0x8C5BE1E5EBEC7D5BD14F71427D1E84F3DD0314C0F7B2291E5B200AC8C7C3B925 SWAP2 LOG4 POP POP POP JUMP JUMPDEST PUSH1 0xD DUP1 SLOAD PUSH2 0x818 SWAP1 PUSH2 0x1CBB JUMP JUMPDEST DUP1 PUSH1 0x1F ADD PUSH1 0x20 DUP1 SWAP2 DIV MUL PUSH1 0x20 ADD PUSH1 0x40 MLOAD SWAP1 DUP2 ADD PUSH1 0x40 MSTORE DUP1 SWAP3 SWAP2 SWAP1 DUP2 DUP2 MSTORE PUSH1 0x20 ADD DUP3 DUP1 SLOAD PUSH2 0x844 SWAP1 PUSH2 0x1CBB JUMP JUMPDEST DUP1 ISZERO PUSH2 0x891 JUMPI DUP1 PUSH1 0x1F LT PUSH2 0x866 JUMPI PUSH2 0x100 DUP1 DUP4 SLOAD DIV MUL DUP4 MSTORE SWAP2 PUSH1 0x20 ADD SWAP2 PUSH2 0x891 JUMP JUMPDEST DUP3 ADD SWAP2 SWAP1 PUSH1 0x0 MSTORE PUSH1 0x20 PUSH1 0x0 KECCAK256 SWAP1 JUMPDEST DUP2 SLOAD DUP2 MSTORE SWAP1 PUSH1 0x1 ADD SWAP1 PUSH1 0x20 ADD DUP1 DUP4 GT PUSH2 0x874 JUMPI DUP3 SWAP1 SUB PUSH1 0x1F AND DUP3 ADD SWAP2 JUMPDEST POP POP POP POP POP DUP2 JUMP JUMPDEST PUSH2 0x8A1 PUSH2 0x1431 JUMP JUMPDEST PUSH1 0xA DUP1 SLOAD PUSH1 0x1 PUSH1 0x1 PUSH1 0xA0 SHL SUB NOT AND PUSH1 0x1 PUSH1 0x1 PUSH1 0xA0 SHL SUB SWAP3 SWAP1 SWAP3 AND SWAP2 SWAP1 SWAP2 OR SWAP1 SSTORE JUMP JUMPDEST PUSH1 0x0 PUSH2 0x8CE DUP3 PUSH2 0x148B JUMP JUMPDEST SWAP1 POP DUP4 PUSH1 0x1 PUSH1 0x1 PUSH1 0xA0 SHL SUB AND DUP2 PUSH1 0x1 PUSH1 0x1 PUSH1 0xA0 SHL SUB AND EQ PUSH2 0x901 JUMPI PUSH1 0x40 MLOAD PUSH3 0xA11481 PUSH1 0xE8 SHL DUP2 MSTORE PUSH1 0x4 ADD PUSH1 0x40 MLOAD DUP1 SWAP2 SUB SWAP1 REVERT JUMPDEST PUSH1 0x0 DUP3 DUP2 MSTORE PUSH1 0x6 PUSH1 0x20 MSTORE PUSH1 0x40 SWAP1 KECCAK256 DUP1 SLOAD CALLER DUP1 DUP3 EQ PUSH1 0x1 PUSH1 0x1 PUSH1 0xA0 SHL SUB DUP9 AND SWAP1 SWAP2 EQ OR PUSH2 0x94E JUMPI PUSH2 0x931 DUP7 CALLER PUSH2 0x1321 JUMP JUMPDEST PUSH2 0x94E JUMPI PUSH1 0x40 MLOAD PUSH4 0x2CE44B5F PUSH1 0xE1 SHL DUP2 MSTORE PUSH1 0x4 ADD PUSH1 0x40 MLOAD DUP1 SWAP2 SUB SWAP1 REVERT JUMPDEST PUSH1 0x1 PUSH1 0x1 PUSH1 0xA0 SHL SUB DUP6 AND PUSH2 0x975 JUMPI PUSH1 0x40 MLOAD PUSH4 0x3A954ECD PUSH1 0xE2 SHL DUP2 MSTORE PUSH1 0x4 ADD PUSH1 0x40 MLOAD DUP1 SWAP2 SUB SWAP1 REVERT JUMPDEST DUP1 ISZERO PUSH2 0x980 JUMPI PUSH1 0x0 DUP3 SSTORE JUMPDEST PUSH1 0x1 PUSH1 0x1 PUSH1 0xA0 SHL SUB DUP7 DUP2 AND PUSH1 0x0 SWAP1 DUP2 MSTORE PUSH1 0x5 PUSH1 0x20 MSTORE PUSH1 0x40 DUP1 DUP3 KECCAK256 DUP1 SLOAD PUSH1 0x0 NOT ADD SWAP1 SSTORE SWAP2 DUP8 AND DUP1 DUP3 MSTORE SWAP2 SWAP1 KECCAK256 DUP1 SLOAD PUSH1 0x1 ADD SWAP1 SSTORE TIMESTAMP PUSH1 0xA0 SHL OR PUSH1 0x1 PUSH1 0xE1 SHL OR PUSH1 0x0 DUP6 DUP2 MSTORE PUSH1 0x4 PUSH1 0x20 MSTORE PUSH1 0x40 DUP2 KECCAK256 SWAP2 SWAP1 SWAP2 SSTORE PUSH1 0x1 PUSH1 0xE1 SHL DUP5 AND SWAP1 SUB PUSH2 0xA12 JUMPI PUSH1 0x1 DUP5 ADD PUSH1 0x0 DUP2 DUP2 MSTORE PUSH1 0x4 PUSH1 0x20 MSTORE PUSH1 0x40 DUP2 KECCAK256 SLOAD SWAP1 SUB PUSH2 0xA10 JUMPI PUSH1 0x0 SLOAD DUP2 EQ PUSH2 0xA10 JUMPI PUSH1 0x0 DUP2 DUP2 MSTORE PUSH1 0x4 PUSH1 0x20 MSTORE PUSH1 0x40 SWAP1 KECCAK256 DUP5 SWAP1 SSTORE JUMPDEST POP JUMPDEST DUP4 DUP6 PUSH1 0x1 PUSH1 0x1 PUSH1 0xA0 SHL SUB AND DUP8 PUSH1 0x1 PUSH1 0x1 PUSH1 0xA0 SHL SUB AND PUSH32 0xDDF252AD1BE2C89B69C2B068FC378DAA952BA7F163C4A11628F55A4DF523B3EF PUSH1 0x40 MLOAD PUSH1 0x40 MLOAD DUP1 SWAP2 SUB SWAP1 LOG4 JUMPDEST POP POP POP POP POP POP JUMP JUMPDEST PUSH2 0xA77 DUP4 DUP4 DUP4 PUSH1 0x40 MLOAD DUP1 PUSH1 0x20 ADD PUSH1 0x40 MSTORE DUP1 PUSH1 0x0 DUP2 MSTORE POP PUSH2 0xD16 JUMP JUMPDEST POP POP POP JUMP JUMPDEST PUSH2 0xA84 PUSH2 0x1431 JUMP JUMPDEST PUSH1 0xC PUSH2 0xA90 DUP3 DUP3 PUSH2 0x1D3B JUMP JUMPDEST POP POP JUMP JUMPDEST PUSH1 0x0 PUSH2 0x68F DUP3 PUSH2 0x148B JUMP JUMPDEST PUSH1 0x40 DUP1 MLOAD DUP1 DUP3 ADD DUP3 MSTORE PUSH1 0x0 DUP1 DUP3 MSTORE PUSH1 0x20 DUP3 ADD MSTORE PUSH1 0xA SLOAD SWAP2 MLOAD PUSH4 0x67883F4B PUSH1 0xE0 SHL DUP2 MSTORE PUSH1 0xFF DUP5 AND PUSH1 0x4 DUP3 ADD MSTORE SWAP1 SWAP2 PUSH1 0x1 PUSH1 0x1 PUSH1 0xA0 SHL SUB AND SWAP1 PUSH4 0x67883F4B SWAP1 PUSH1 0x24 ADD PUSH1 0x40 DUP1 MLOAD DUP1 DUP4 SUB DUP2 DUP7 GAS STATICCALL ISZERO DUP1 ISZERO PUSH2 0xAFB JUMPI RETURNDATASIZE PUSH1 0x0 DUP1 RETURNDATACOPY RETURNDATASIZE PUSH1 0x0 REVERT JUMPDEST POP POP POP POP PUSH1 0x40 MLOAD RETURNDATASIZE PUSH1 0x1F NOT PUSH1 0x1F DUP3 ADD AND DUP3 ADD DUP1 PUSH1 0x40 MSTORE POP DUP2 ADD SWAP1 PUSH2 0x68F SWAP2 SWAP1 PUSH2 0x1DFB JUMP JUMPDEST PUSH1 0xC DUP1 SLOAD PUSH2 0x818 SWAP1 PUSH2 0x1CBB JUMP JUMPDEST PUSH1 0x0 PUSH1 0x1 PUSH1 0x1 PUSH1 0xA0 SHL SUB DUP3 AND PUSH2 0xB55 JUMPI PUSH1 0x40 MLOAD PUSH4 0x23D3AD81 PUSH1 0xE2 SHL DUP2 MSTORE PUSH1 0x4 ADD PUSH1 0x40 MLOAD DUP1 SWAP2 SUB SWAP1 REVERT JUMPDEST POP PUSH1 0x1 PUSH1 0x1 PUSH1 0xA0 SHL SUB AND PUSH1 0x0 SWAP1 DUP2 MSTORE PUSH1 0x5 PUSH1 0x20 MSTORE PUSH1 0x40 SWAP1 KECCAK256 SLOAD PUSH8 0xFFFFFFFFFFFFFFFF AND SWAP1 JUMP JUMPDEST PUSH2 0xB83 PUSH2 0x1431 JUMP JUMPDEST PUSH2 0xB8D PUSH1 0x0 PUSH2 0x1501 JUMP JUMPDEST JUMP JUMPDEST PUSH2 0xB97 PUSH2 0x1431 JUMP JUMPDEST PUSH1 0xB DUP1 SLOAD PUSH1 0x1 PUSH1 0x1 PUSH1 0xA0 SHL SUB NOT AND PUSH1 0x1 PUSH1 0x1 PUSH1 0xA0 SHL SUB SWAP3 SWAP1 SWAP3 AND SWAP2 SWAP1 SWAP2 OR SWAP1 SSTORE JUMP JUMPDEST PUSH1 0xA SLOAD PUSH1 0x40 MLOAD PUSH4 0x8556646B PUSH1 0xE0 SHL DUP2 MSTORE PUSH1 0xFF DUP4 AND PUSH1 0x4 DUP3 ADD MSTORE PUSH1 0x0 SWAP2 PUSH1 0x1 PUSH1 0x1 PUSH1 0xA0 SHL SUB AND SWAP1 PUSH4 0x8556646B SWAP1 PUSH1 0x24 ADD JUMPDEST PUSH1 0x20 PUSH1 0x40 MLOAD DUP1 DUP4 SUB DUP2 DUP7 GAS STATICCALL ISZERO DUP1 ISZERO PUSH2 0xC06 JUMPI RETURNDATASIZE PUSH1 0x0 DUP1 RETURNDATACOPY RETURNDATASIZE PUSH1 0x0 REVERT JUMPDEST POP POP POP POP PUSH1 0x40 MLOAD RETURNDATASIZE PUSH1 0x1F NOT PUSH1 0x1F DUP3 ADD AND DUP3 ADD DUP1 PUSH1 0x40 MSTORE POP DUP2 ADD SWAP1 PUSH2 0x68F SWAP2 SWAP1 PUSH2 0x1E5A JUMP JUMPDEST PUSH1 0x60 PUSH1 0x3 DUP1 SLOAD PUSH2 0x6A4 SWAP1 PUSH2 0x1CBB JUMP JUMPDEST PUSH1 0xA SLOAD PUSH1 0x40 MLOAD PUSH4 0x139EC005 PUSH1 0xE3 SHL DUP2 MSTORE PUSH1 0xFF DUP4 AND PUSH1 0x4 DUP3 ADD MSTORE PUSH1 0x0 SWAP2 PUSH1 0x1 PUSH1 0x1 PUSH1 0xA0 SHL SUB AND SWAP1 PUSH4 0x9CF60028 SWAP1 PUSH1 0x24 ADD JUMPDEST PUSH1 0x20 PUSH1 0x40 MLOAD DUP1 DUP4 SUB DUP2 DUP7 GAS STATICCALL ISZERO DUP1 ISZERO PUSH2 0xC86 JUMPI RETURNDATASIZE PUSH1 0x0 DUP1 RETURNDATACOPY RETURNDATASIZE PUSH1 0x0 REVERT JUMPDEST POP POP POP POP PUSH1 0x40 MLOAD RETURNDATASIZE PUSH1 0x1F NOT PUSH1 0x1F DUP3 ADD AND DUP3 ADD DUP1 PUSH1 0x40 MSTORE POP DUP2 ADD SWAP1 PUSH2 0x68F SWAP2 SWAP1 PUSH2 0x1E73 JUMP JUMPDEST CALLER PUSH1 0x0 DUP2 DUP2 MSTORE PUSH1 0x7 PUSH1 0x20 SWAP1 DUP2 MSTORE PUSH1 0x40 DUP1 DUP4 KECCAK256 PUSH1 0x1 PUSH1 0x1 PUSH1 0xA0 SHL SUB DUP8 AND DUP1 DUP6 MSTORE SWAP1 DUP4 MSTORE SWAP3 DUP2 SWAP1 KECCAK256 DUP1 SLOAD PUSH1 0xFF NOT AND DUP7 ISZERO ISZERO SWAP1 DUP2 OR SWAP1 SWAP2 SSTORE SWAP1 MLOAD SWAP1 DUP2 MSTORE SWAP2 SWAP3 SWAP2 PUSH32 0x17307EAB39AB6107E8899845AD3D59BD9653F200F220920489CA2B5937696C31 SWAP2 ADD PUSH1 0x40 MLOAD DUP1 SWAP2 SUB SWAP1 LOG3 POP POP JUMP JUMPDEST PUSH2 0xD21 DUP5 DUP5 DUP5 PUSH2 0x8C3 JUMP JUMPDEST PUSH1 0x1 PUSH1 0x1 PUSH1 0xA0 SHL SUB DUP4 AND EXTCODESIZE ISZERO PUSH2 0xD5A JUMPI PUSH2 0xD3D DUP5 DUP5 DUP5 DUP5 PUSH2 0x1553 JUMP JUMPDEST PUSH2 0xD5A JUMPI PUSH1 0x40 MLOAD PUSH4 0x68D2BF6B PUSH1 0xE1 SHL DUP2 MSTORE PUSH1 0x4 ADD PUSH1 0x40 MLOAD DUP1 SWAP2 SUB SWAP1 REVERT JUMPDEST POP POP POP POP JUMP JUMPDEST PUSH1 0x60 PUSH2 0xD6B DUP3 PUSH2 0x13FC JUMP JUMPDEST PUSH2 0xD88 JUMPI PUSH1 0x40 MLOAD PUSH4 0xA14C4B5 PUSH1 0xE4 SHL DUP2 MSTORE PUSH1 0x4 ADD PUSH1 0x40 MLOAD DUP1 SWAP2 SUB SWAP1 REVERT JUMPDEST PUSH1 0xC DUP1 SLOAD PUSH2 0xD95 SWAP1 PUSH2 0x1CBB JUMP JUMPDEST SWAP1 POP PUSH1 0x0 SUB PUSH2 0xDB3 JUMPI PUSH1 0x40 MLOAD DUP1 PUSH1 0x20 ADD PUSH1 0x40 MSTORE DUP1 PUSH1 0x0 DUP2 MSTORE POP PUSH2 0x68F JUMP JUMPDEST PUSH1 0xC PUSH2 0xDBE DUP4 PUSH2 0x163F JUMP JUMPDEST PUSH1 0xD PUSH1 0x40 MLOAD PUSH1 0x20 ADD PUSH2 0xDD2 SWAP4 SWAP3 SWAP2 SWAP1 PUSH2 0x1F03 JUMP JUMPDEST PUSH1 0x40 MLOAD PUSH1 0x20 DUP2 DUP4 SUB SUB DUP2 MSTORE SWAP1 PUSH1 0x40 MSTORE SWAP3 SWAP2 POP POP JUMP JUMPDEST PUSH1 0xA SLOAD PUSH1 0x40 MLOAD PUSH4 0x6891749D PUSH1 0xE1 SHL DUP2 MSTORE PUSH1 0xFF DUP4 AND PUSH1 0x4 DUP3 ADD MSTORE PUSH1 0x0 SWAP2 PUSH1 0x1 PUSH1 0x1 PUSH1 0xA0 SHL SUB AND SWAP1 PUSH4 0xD122E93A SWAP1 PUSH1 0x24 ADD PUSH2 0xBE9 JUMP JUMPDEST PUSH2 0xE23 PUSH2 0x1431 JUMP JUMPDEST PUSH1 0xB DUP1 SLOAD PUSH1 0xFF SWAP1 SWAP3 AND PUSH1 0x1 PUSH1 0xA0 SHL MUL PUSH1 0xFF PUSH1 0xA0 SHL NOT SWAP1 SWAP3 AND SWAP2 SWAP1 SWAP2 OR SWAP1 SSTORE JUMP JUMPDEST PUSH1 0x0 DUP4 PUSH1 0xFF AND GT DUP1 ISZERO PUSH2 0xE5A JUMPI POP PUSH1 0x14 DUP4 PUSH1 0xFF AND GT ISZERO JUMPDEST PUSH2 0xEAB JUMPI PUSH1 0x40 MLOAD PUSH3 0x461BCD PUSH1 0xE5 SHL DUP2 MSTORE PUSH1 0x20 PUSH1 0x4 DUP3 ADD MSTORE PUSH1 0x1F PUSH1 0x24 DUP3 ADD MSTORE PUSH32 0x4D61696E20647269766572206E756D626572206F7574206F662072616E676500 PUSH1 0x44 DUP3 ADD MSTORE PUSH1 0x64 ADD JUMPDEST PUSH1 0x40 MLOAD DUP1 SWAP2 SUB SWAP1 REVERT JUMPDEST PUSH1 0x0 DUP3 PUSH1 0xFF AND GT DUP1 ISZERO PUSH2 0xEC2 JUMPI POP PUSH1 0x14 DUP3 PUSH1 0xFF AND GT ISZERO JUMPDEST PUSH2 0xF1A JUMPI PUSH1 0x40 MLOAD PUSH3 0x461BCD PUSH1 0xE5 SHL DUP2 MSTORE PUSH1 0x20 PUSH1 0x4 DUP3 ADD MSTORE PUSH1 0x24 DUP1 DUP3 ADD MSTORE PUSH32 0x5365636F6E6461727920647269766572206E756D626572206F7574206F662072 PUSH1 0x44 DUP3 ADD MSTORE PUSH4 0x616E6765 PUSH1 0xE0 SHL PUSH1 0x64 DUP3 ADD MSTORE PUSH1 0x84 ADD PUSH2 0xEA2 JUMP JUMPDEST PUSH1 0x0 DUP2 PUSH1 0xFF AND GT DUP1 ISZERO PUSH2 0xF31 JUMPI POP PUSH1 0xA DUP2 PUSH1 0xFF AND GT ISZERO JUMPDEST PUSH2 0xF7D JUMPI PUSH1 0x40 MLOAD PUSH3 0x461BCD PUSH1 0xE5 SHL DUP2 MSTORE PUSH1 0x20 PUSH1 0x4 DUP3 ADD MSTORE PUSH1 0x18 PUSH1 0x24 DUP3 ADD MSTORE PUSH32 0x5465616D206E756D626572206F7574206F662072616E67650000000000000000 PUSH1 0x44 DUP3 ADD MSTORE PUSH1 0x64 ADD PUSH2 0xEA2 JUMP JUMPDEST PUSH1 0xA SLOAD PUSH1 0x40 MLOAD PUSH4 0x6891749D PUSH1 0xE1 SHL DUP2 MSTORE PUSH1 0xFF DUP6 AND PUSH1 0x4 DUP3 ADD MSTORE PUSH1 0x0 SWAP2 PUSH1 0x1 PUSH1 0x1 PUSH1 0xA0 SHL SUB AND SWAP1 PUSH4 0xD122E93A SWAP1 PUSH1 0x24 ADD PUSH1 0x20 PUSH1 0x40 MLOAD DUP1 DUP4 SUB DUP2 DUP7 GAS STATICCALL ISZERO DUP1 ISZERO PUSH2 0xFC9 JUMPI RETURNDATASIZE PUSH1 0x0 DUP1 RETURNDATACOPY RETURNDATASIZE PUSH1 0x0 REVERT JUMPDEST POP POP POP POP PUSH1 0x40 MLOAD RETURNDATASIZE PUSH1 0x1F NOT PUSH1 0x1F DUP3 ADD AND DUP3 ADD DUP1 PUSH1 0x40 MSTORE POP DUP2 ADD SWAP1 PUSH2 0xFED SWAP2 SWAP1 PUSH2 0x1E5A JUMP JUMPDEST PUSH1 0xA SLOAD PUSH1 0x40 MLOAD PUSH4 0x6891749D PUSH1 0xE1 SHL DUP2 MSTORE PUSH1 0xFF DUP7 AND PUSH1 0x4 DUP3 ADD MSTORE SWAP2 SWAP3 POP PUSH1 0x0 SWAP2 PUSH1 0x1 PUSH1 0x1 PUSH1 0xA0 SHL SUB SWAP1 SWAP2 AND SWAP1 PUSH4 0xD122E93A SWAP1 PUSH1 0x24 ADD PUSH1 0x20 PUSH1 0x40 MLOAD DUP1 DUP4 SUB DUP2 DUP7 GAS STATICCALL ISZERO DUP1 ISZERO PUSH2 0x103E JUMPI RETURNDATASIZE PUSH1 0x0 DUP1 RETURNDATACOPY RETURNDATASIZE PUSH1 0x0 REVERT JUMPDEST POP POP POP POP PUSH1 0x40 MLOAD RETURNDATASIZE PUSH1 0x1F NOT PUSH1 0x1F DUP3 ADD AND DUP3 ADD DUP1 PUSH1 0x40 MSTORE POP DUP2 ADD SWAP1 PUSH2 0x1062 SWAP2 SWAP1 PUSH2 0x1E5A JUMP JUMPDEST PUSH1 0xA SLOAD PUSH1 0x40 MLOAD PUSH4 0x8556646B PUSH1 0xE0 SHL DUP2 MSTORE PUSH1 0xFF DUP7 AND PUSH1 0x4 DUP3 ADD MSTORE SWAP2 SWAP3 POP PUSH1 0x0 SWAP2 PUSH1 0x1 PUSH1 0x1 PUSH1 0xA0 SHL SUB SWAP1 SWAP2 AND SWAP1 PUSH4 0x8556646B SWAP1 PUSH1 0x24 ADD PUSH1 0x20 PUSH1 0x40 MLOAD DUP1 DUP4 SUB DUP2 DUP7 GAS STATICCALL ISZERO DUP1 ISZERO PUSH2 0x10B3 JUMPI RETURNDATASIZE PUSH1 0x0 DUP1 RETURNDATACOPY RETURNDATASIZE PUSH1 0x0 REVERT JUMPDEST POP POP POP POP PUSH1 0x40 MLOAD RETURNDATASIZE PUSH1 0x1F NOT PUSH1 0x1F DUP3 ADD AND DUP3 ADD DUP1 PUSH1 0x40 MSTORE POP DUP2 ADD SWAP1 PUSH2 0x10D7 SWAP2 SWAP1 PUSH2 0x1E5A JUMP JUMPDEST SWAP1 POP PUSH1 0x0 DUP2 PUSH2 0x10E6 DUP5 DUP7 PUSH2 0x1F36 JUMP JUMPDEST PUSH2 0x10F0 SWAP2 SWAP1 PUSH2 0x1F36 JUMP JUMPDEST PUSH1 0xB SLOAD PUSH1 0x40 MLOAD PUSH4 0x70A08231 PUSH1 0xE0 SHL DUP2 MSTORE CALLER PUSH1 0x4 DUP3 ADD MSTORE SWAP2 SWAP3 POP DUP3 SWAP2 PUSH1 0x1 PUSH1 0x1 PUSH1 0xA0 SHL SUB SWAP1 SWAP2 AND SWAP1 PUSH4 0x70A08231 SWAP1 PUSH1 0x24 ADD PUSH1 0x20 PUSH1 0x40 MLOAD DUP1 DUP4 SUB DUP2 DUP7 GAS STATICCALL ISZERO DUP1 ISZERO PUSH2 0x113D JUMPI RETURNDATASIZE PUSH1 0x0 DUP1 RETURNDATACOPY RETURNDATASIZE PUSH1 0x0 REVERT JUMPDEST POP POP POP POP PUSH1 0x40 MLOAD RETURNDATASIZE PUSH1 0x1F NOT PUSH1 0x1F DUP3 ADD AND DUP3 ADD DUP1 PUSH1 0x40 MSTORE POP DUP2 ADD SWAP1 PUSH2 0x1161 SWAP2 SWAP1 PUSH2 0x1E5A JUMP JUMPDEST LT ISZERO PUSH2 0x11AF JUMPI PUSH1 0x40 MLOAD PUSH3 0x461BCD PUSH1 0xE5 SHL DUP2 MSTORE PUSH1 0x20 PUSH1 0x4 DUP3 ADD MSTORE PUSH1 0x19 PUSH1 0x24 DUP3 ADD MSTORE PUSH32 0x4E6F7420656E6F75676820746F6B656E2062616C616E63652E00000000000000 PUSH1 0x44 DUP3 ADD MSTORE PUSH1 0x64 ADD PUSH2 0xEA2 JUMP JUMPDEST PUSH1 0xB SLOAD PUSH1 0x40 MLOAD PUSH4 0x6EB1769F PUSH1 0xE1 SHL DUP2 MSTORE CALLER PUSH1 0x4 DUP3 ADD MSTORE ADDRESS PUSH1 0x24 DUP3 ADD MSTORE DUP3 SWAP2 PUSH1 0x1 PUSH1 0x1 PUSH1 0xA0 SHL SUB AND SWAP1 PUSH4 0xDD62ED3E SWAP1 PUSH1 0x44 ADD PUSH1 0x20 PUSH1 0x40 MLOAD DUP1 DUP4 SUB DUP2 DUP7 GAS STATICCALL ISZERO DUP1 ISZERO PUSH2 0x11FD JUMPI RETURNDATASIZE PUSH1 0x0 DUP1 RETURNDATACOPY RETURNDATASIZE PUSH1 0x0 REVERT JUMPDEST POP POP POP POP PUSH1 0x40 MLOAD RETURNDATASIZE PUSH1 0x1F NOT PUSH1 0x1F DUP3 ADD AND DUP3 ADD DUP1 PUSH1 0x40 MSTORE POP DUP2 ADD SWAP1 PUSH2 0x1221 SWAP2 SWAP1 PUSH2 0x1E5A JUMP JUMPDEST LT ISZERO PUSH2 0x126F JUMPI PUSH1 0x40 MLOAD PUSH3 0x461BCD PUSH1 0xE5 SHL DUP2 MSTORE PUSH1 0x20 PUSH1 0x4 DUP3 ADD MSTORE PUSH1 0x19 PUSH1 0x24 DUP3 ADD MSTORE PUSH32 0x436865636B2074686520746F6B656E20616C6C6F77616E636500000000000000 PUSH1 0x44 DUP3 ADD MSTORE PUSH1 0x64 ADD PUSH2 0xEA2 JUMP JUMPDEST PUSH1 0xB SLOAD PUSH1 0x40 MLOAD PUSH4 0x23B872DD PUSH1 0xE0 SHL DUP2 MSTORE CALLER PUSH1 0x4 DUP3 ADD MSTORE ADDRESS PUSH1 0x24 DUP3 ADD MSTORE PUSH1 0x44 DUP2 ADD DUP4 SWAP1 MSTORE PUSH1 0x1 PUSH1 0x1 PUSH1 0xA0 SHL SUB SWAP1 SWAP2 AND SWAP1 PUSH4 0x23B872DD SWAP1 PUSH1 0x64 ADD PUSH1 0x20 PUSH1 0x40 MLOAD DUP1 DUP4 SUB DUP2 PUSH1 0x0 DUP8 GAS CALL ISZERO DUP1 ISZERO PUSH2 0x12C6 JUMPI RETURNDATASIZE PUSH1 0x0 DUP1 RETURNDATACOPY RETURNDATASIZE PUSH1 0x0 REVERT JUMPDEST POP POP POP POP PUSH1 0x40 MLOAD RETURNDATASIZE PUSH1 0x1F NOT PUSH1 0x1F DUP3 ADD AND DUP3 ADD DUP1 PUSH1 0x40 MSTORE POP DUP2 ADD SWAP1 PUSH2 0x12EA SWAP2 SWAP1 PUSH2 0x1F57 JUMP JUMPDEST POP PUSH1 0x0 PUSH2 0x1300 PUSH1 0x1 SLOAD PUSH1 0x0 SLOAD PUSH1 0x0 NOT SWAP2 SWAP1 SUB ADD SWAP1 JUMP JUMPDEST PUSH2 0x130B SWAP1 PUSH1 0x1 PUSH2 0x1F36 JUMP JUMPDEST SWAP1 POP PUSH2 0x1317 CALLER DUP3 PUSH2 0x16D2 JUMP JUMPDEST POP POP POP POP POP POP POP POP JUMP JUMPDEST PUSH1 0x1 PUSH1 0x1 PUSH1 0xA0 SHL SUB SWAP2 DUP3 AND PUSH1 0x0 SWAP1 DUP2 MSTORE PUSH1 0x7 PUSH1 0x20 SWAP1 DUP2 MSTORE PUSH1 0x40 DUP1 DUP4 KECCAK256 SWAP4 SWAP1 SWAP5 AND DUP3 MSTORE SWAP2 SWAP1 SWAP2 MSTORE KECCAK256 SLOAD PUSH1 0xFF AND SWAP1 JUMP JUMPDEST PUSH2 0x1357 PUSH2 0x1431 JUMP JUMPDEST PUSH1 0x1 PUSH1 0x1 PUSH1 0xA0 SHL SUB DUP2 AND PUSH2 0x13BC JUMPI PUSH1 0x40 MLOAD PUSH3 0x461BCD PUSH1 0xE5 SHL DUP2 MSTORE PUSH1 0x20 PUSH1 0x4 DUP3 ADD MSTORE PUSH1 0x26 PUSH1 0x24 DUP3 ADD MSTORE PUSH32 0x4F776E61626C653A206E6577206F776E657220697320746865207A65726F2061 PUSH1 0x44 DUP3 ADD MSTORE PUSH6 0x646472657373 PUSH1 0xD0 SHL PUSH1 0x64 DUP3 ADD MSTORE PUSH1 0x84 ADD PUSH2 0xEA2 JUMP JUMPDEST PUSH2 0x13C5 DUP2 PUSH2 0x1501 JUMP JUMPDEST POP JUMP JUMPDEST PUSH1 0xA SLOAD PUSH1 0x40 MLOAD PUSH4 0xFCF4ED93 PUSH1 0xE0 SHL DUP2 MSTORE PUSH1 0xFF DUP4 AND PUSH1 0x4 DUP3 ADD MSTORE PUSH1 0x0 SWAP2 PUSH1 0x1 PUSH1 0x1 PUSH1 0xA0 SHL SUB AND SWAP1 PUSH4 0xFCF4ED93 SWAP1 PUSH1 0x24 ADD PUSH2 0xC69 JUMP JUMPDEST PUSH1 0x0 DUP2 PUSH1 0x1 GT ISZERO DUP1 ISZERO PUSH2 0x1410 JUMPI POP PUSH1 0x0 SLOAD DUP3 LT JUMPDEST DUP1 ISZERO PUSH2 0x68F JUMPI POP POP PUSH1 0x0 SWAP1 DUP2 MSTORE PUSH1 0x4 PUSH1 0x20 MSTORE PUSH1 0x40 SWAP1 KECCAK256 SLOAD PUSH1 0x1 PUSH1 0xE0 SHL AND ISZERO SWAP1 JUMP JUMPDEST PUSH1 0x8 SLOAD PUSH1 0x1 PUSH1 0x1 PUSH1 0xA0 SHL SUB AND CALLER EQ PUSH2 0xB8D JUMPI PUSH1 0x40 MLOAD PUSH3 0x461BCD PUSH1 0xE5 SHL DUP2 MSTORE PUSH1 0x20 PUSH1 0x4 DUP3 ADD DUP2 SWAP1 MSTORE PUSH1 0x24 DUP3 ADD MSTORE PUSH32 0x4F776E61626C653A2063616C6C6572206973206E6F7420746865206F776E6572 PUSH1 0x44 DUP3 ADD MSTORE PUSH1 0x64 ADD PUSH2 0xEA2 JUMP JUMPDEST PUSH1 0x0 DUP2 DUP1 PUSH1 0x1 GT PUSH2 0x14E8 JUMPI PUSH1 0x0 SLOAD DUP2 LT ISZERO PUSH2 0x14E8 JUMPI PUSH1 0x0 DUP2 DUP2 MSTORE PUSH1 0x4 PUSH1 0x20 MSTORE PUSH1 0x40 DUP2 KECCAK256 SLOAD SWAP1 PUSH1 0x1 PUSH1 0xE0 SHL DUP3 AND SWAP1 SUB PUSH2 0x14E6 JUMPI JUMPDEST DUP1 PUSH1 0x0 SUB PUSH2 0x14DF JUMPI POP PUSH1 0x0 NOT ADD PUSH1 0x0 DUP2 DUP2 MSTORE PUSH1 0x4 PUSH1 0x20 MSTORE PUSH1 0x40 SWAP1 KECCAK256 SLOAD PUSH2 0x14BE JUMP JUMPDEST SWAP4 SWAP3 POP POP POP JUMP JUMPDEST POP JUMPDEST PUSH1 0x40 MLOAD PUSH4 0x6F96CDA1 PUSH1 0xE1 SHL DUP2 MSTORE PUSH1 0x4 ADD PUSH1 0x40 MLOAD DUP1 SWAP2 SUB SWAP1 REVERT JUMPDEST PUSH1 0x8 DUP1 SLOAD PUSH1 0x1 PUSH1 0x1 PUSH1 0xA0 SHL SUB DUP4 DUP2 AND PUSH1 0x1 PUSH1 0x1 PUSH1 0xA0 SHL SUB NOT DUP4 AND DUP2 OR SWAP1 SWAP4 SSTORE PUSH1 0x40 MLOAD SWAP2 AND SWAP2 SWAP1 DUP3 SWAP1 PUSH32 0x8BE0079C531659141344CD1FD0A4F28419497F9722A3DAAFE3B4186F6B6457E0 SWAP1 PUSH1 0x0 SWAP1 LOG3 POP POP JUMP JUMPDEST PUSH1 0x40 MLOAD PUSH4 0xA85BD01 PUSH1 0xE1 SHL DUP2 MSTORE PUSH1 0x0 SWAP1 PUSH1 0x1 PUSH1 0x1 PUSH1 0xA0 SHL SUB DUP6 AND SWAP1 PUSH4 0x150B7A02 SWAP1 PUSH2 0x1588 SWAP1 CALLER SWAP1 DUP10 SWAP1 DUP9 SWAP1 DUP9 SWAP1 PUSH1 0x4 ADD PUSH2 0x1F74 JUMP JUMPDEST PUSH1 0x20 PUSH1 0x40 MLOAD DUP1 DUP4 SUB DUP2 PUSH1 0x0 DUP8 GAS CALL SWAP3 POP POP POP DUP1 ISZERO PUSH2 0x15C3 JUMPI POP PUSH1 0x40 DUP1 MLOAD PUSH1 0x1F RETURNDATASIZE SWAP1 DUP2 ADD PUSH1 0x1F NOT AND DUP3 ADD SWAP1 SWAP3 MSTORE PUSH2 0x15C0 SWAP2 DUP2 ADD SWAP1 PUSH2 0x1FB1 JUMP JUMPDEST PUSH1 0x1 JUMPDEST PUSH2 0x1621 JUMPI RETURNDATASIZE DUP1 DUP1 ISZERO PUSH2 0x15F1 JUMPI PUSH1 0x40 MLOAD SWAP2 POP PUSH1 0x1F NOT PUSH1 0x3F RETURNDATASIZE ADD AND DUP3 ADD PUSH1 0x40 MSTORE RETURNDATASIZE DUP3 MSTORE RETURNDATASIZE PUSH1 0x0 PUSH1 0x20 DUP5 ADD RETURNDATACOPY PUSH2 0x15F6 JUMP JUMPDEST PUSH1 0x60 SWAP2 POP JUMPDEST POP DUP1 MLOAD PUSH1 0x0 SUB PUSH2 0x1619 JUMPI PUSH1 0x40 MLOAD PUSH4 0x68D2BF6B PUSH1 0xE1 SHL DUP2 MSTORE PUSH1 0x4 ADD PUSH1 0x40 MLOAD DUP1 SWAP2 SUB SWAP1 REVERT JUMPDEST DUP1 MLOAD DUP2 PUSH1 0x20 ADD REVERT JUMPDEST PUSH1 0x1 PUSH1 0x1 PUSH1 0xE0 SHL SUB NOT AND PUSH4 0xA85BD01 PUSH1 0xE1 SHL EQ SWAP1 POP JUMPDEST SWAP5 SWAP4 POP POP POP POP JUMP JUMPDEST PUSH1 0x60 PUSH1 0x0 PUSH2 0x164C DUP4 PUSH2 0x16EC JUMP JUMPDEST PUSH1 0x1 ADD SWAP1 POP PUSH1 0x0 DUP2 PUSH8 0xFFFFFFFFFFFFFFFF DUP2 GT ISZERO PUSH2 0x166C JUMPI PUSH2 0x166C PUSH2 0x1A7B JUMP JUMPDEST PUSH1 0x40 MLOAD SWAP1 DUP1 DUP3 MSTORE DUP1 PUSH1 0x1F ADD PUSH1 0x1F NOT AND PUSH1 0x20 ADD DUP3 ADD PUSH1 0x40 MSTORE DUP1 ISZERO PUSH2 0x1696 JUMPI PUSH1 0x20 DUP3 ADD DUP2 DUP1 CALLDATASIZE DUP4 CALLDATACOPY ADD SWAP1 POP JUMPDEST POP SWAP1 POP DUP2 DUP2 ADD PUSH1 0x20 ADD JUMPDEST PUSH1 0x0 NOT ADD PUSH16 0x181899199A1A9B1B9C1CB0B131B232B3 PUSH1 0x81 SHL PUSH1 0xA DUP7 MOD BYTE DUP2 MSTORE8 PUSH1 0xA DUP6 DIV SWAP5 POP DUP5 PUSH2 0x16A0 JUMPI POP SWAP4 SWAP3 POP POP POP JUMP JUMPDEST PUSH2 0xA90 DUP3 DUP3 PUSH1 0x40 MLOAD DUP1 PUSH1 0x20 ADD PUSH1 0x40 MSTORE DUP1 PUSH1 0x0 DUP2 MSTORE POP PUSH2 0x17C4 JUMP JUMPDEST PUSH1 0x0 DUP1 PUSH19 0x184F03E93FF9F4DAA797ED6E38ED64BF6A1F01 PUSH1 0x40 SHL DUP4 LT PUSH2 0x172B JUMPI PUSH19 0x184F03E93FF9F4DAA797ED6E38ED64BF6A1F01 PUSH1 0x40 SHL DUP4 DIV SWAP3 POP PUSH1 0x40 ADD JUMPDEST PUSH14 0x4EE2D6D415B85ACEF8100000000 DUP4 LT PUSH2 0x1757 JUMPI PUSH14 0x4EE2D6D415B85ACEF8100000000 DUP4 DIV SWAP3 POP PUSH1 0x20 ADD JUMPDEST PUSH7 0x2386F26FC10000 DUP4 LT PUSH2 0x1775 JUMPI PUSH7 0x2386F26FC10000 DUP4 DIV SWAP3 POP PUSH1 0x10 ADD JUMPDEST PUSH4 0x5F5E100 DUP4 LT PUSH2 0x178D JUMPI PUSH4 0x5F5E100 DUP4 DIV SWAP3 POP PUSH1 0x8 ADD JUMPDEST PUSH2 0x2710 DUP4 LT PUSH2 0x17A1 JUMPI PUSH2 0x2710 DUP4 DIV SWAP3 POP PUSH1 0x4 ADD JUMPDEST PUSH1 0x64 DUP4 LT PUSH2 0x17B3 JUMPI PUSH1 0x64 DUP4 DIV SWAP3 POP PUSH1 0x2 ADD JUMPDEST PUSH1 0xA DUP4 LT PUSH2 0x68F JUMPI PUSH1 0x1 ADD SWAP3 SWAP2 POP POP JUMP JUMPDEST PUSH2 0x17CE DUP4 DUP4 PUSH2 0x1831 JUMP JUMPDEST PUSH1 0x1 PUSH1 0x1 PUSH1 0xA0 SHL SUB DUP4 AND EXTCODESIZE ISZERO PUSH2 0xA77 JUMPI PUSH1 0x0 SLOAD DUP3 DUP2 SUB JUMPDEST PUSH2 0x17F8 PUSH1 0x0 DUP7 DUP4 DUP1 PUSH1 0x1 ADD SWAP5 POP DUP7 PUSH2 0x1553 JUMP JUMPDEST PUSH2 0x1815 JUMPI PUSH1 0x40 MLOAD PUSH4 0x68D2BF6B PUSH1 0xE1 SHL DUP2 MSTORE PUSH1 0x4 ADD PUSH1 0x40 MLOAD DUP1 SWAP2 SUB SWAP1 REVERT JUMPDEST DUP2 DUP2 LT PUSH2 0x17E5 JUMPI DUP2 PUSH1 0x0 SLOAD EQ PUSH2 0x182A JUMPI PUSH1 0x0 DUP1 REVERT JUMPDEST POP POP POP POP POP JUMP JUMPDEST PUSH1 0x0 DUP1 SLOAD SWAP1 DUP3 SWAP1 SUB PUSH2 0x1856 JUMPI PUSH1 0x40 MLOAD PUSH4 0xB562E8DD PUSH1 0xE0 SHL DUP2 MSTORE PUSH1 0x4 ADD PUSH1 0x40 MLOAD DUP1 SWAP2 SUB SWAP1 REVERT JUMPDEST PUSH1 0x1 PUSH1 0x1 PUSH1 0xA0 SHL SUB DUP4 AND PUSH1 0x0 DUP2 DUP2 MSTORE PUSH1 0x5 PUSH1 0x20 SWAP1 DUP2 MSTORE PUSH1 0x40 DUP1 DUP4 KECCAK256 DUP1 SLOAD PUSH9 0x10000000000000001 DUP9 MUL ADD SWAP1 SSTORE DUP5 DUP4 MSTORE PUSH1 0x4 SWAP1 SWAP2 MSTORE DUP2 KECCAK256 PUSH1 0x1 DUP6 EQ PUSH1 0xE1 SHL TIMESTAMP PUSH1 0xA0 SHL OR DUP4 OR SWAP1 SSTORE DUP3 DUP5 ADD SWAP1 DUP4 SWAP1 DUP4 SWAP1 PUSH32 0xDDF252AD1BE2C89B69C2B068FC378DAA952BA7F163C4A11628F55A4DF523B3EF DUP2 DUP1 LOG4 PUSH1 0x1 DUP4 ADD JUMPDEST DUP2 DUP2 EQ PUSH2 0x1905 JUMPI DUP1 DUP4 PUSH1 0x0 PUSH32 0xDDF252AD1BE2C89B69C2B068FC378DAA952BA7F163C4A11628F55A4DF523B3EF PUSH1 0x0 DUP1 LOG4 PUSH1 0x1 ADD PUSH2 0x18CD JUMP JUMPDEST POP DUP2 PUSH1 0x0 SUB PUSH2 0x1926 JUMPI PUSH1 0x40 MLOAD PUSH3 0x2E0763 PUSH1 0xE8 SHL DUP2 MSTORE PUSH1 0x4 ADD PUSH1 0x40 MLOAD DUP1 SWAP2 SUB SWAP1 REVERT JUMPDEST PUSH1 0x0 SSTORE POP POP POP POP JUMP JUMPDEST PUSH1 0x1 PUSH1 0x1 PUSH1 0xE0 SHL SUB NOT DUP2 AND DUP2 EQ PUSH2 0x13C5 JUMPI PUSH1 0x0 DUP1 REVERT JUMPDEST PUSH1 0x0 PUSH1 0x20 DUP3 DUP5 SUB SLT ISZERO PUSH2 0x1957 JUMPI PUSH1 0x0 DUP1 REVERT JUMPDEST DUP2 CALLDATALOAD PUSH2 0x14DF DUP2 PUSH2 0x192F JUMP JUMPDEST PUSH1 0x0 JUMPDEST DUP4 DUP2 LT ISZERO PUSH2 0x197D JUMPI DUP2 DUP2 ADD MLOAD DUP4 DUP3 ADD MSTORE PUSH1 0x20 ADD PUSH2 0x1965 JUMP JUMPDEST POP POP PUSH1 0x0 SWAP2 ADD MSTORE JUMP JUMPDEST PUSH1 0x0 DUP2 MLOAD DUP1 DUP5 MSTORE PUSH2 0x199E DUP2 PUSH1 0x20 DUP7 ADD PUSH1 0x20 DUP7 ADD PUSH2 0x1962 JUMP JUMPDEST PUSH1 0x1F ADD PUSH1 0x1F NOT AND SWAP3 SWAP1 SWAP3 ADD PUSH1 0x20 ADD SWAP3 SWAP2 POP POP JUMP JUMPDEST PUSH1 0x20 DUP2 MSTORE PUSH1 0x0 PUSH2 0x14DF PUSH1 0x20 DUP4 ADD DUP5 PUSH2 0x1986 JUMP JUMPDEST PUSH1 0x0 PUSH1 0x20 DUP3 DUP5 SUB SLT ISZERO PUSH2 0x19D7 JUMPI PUSH1 0x0 DUP1 REVERT JUMPDEST POP CALLDATALOAD SWAP2 SWAP1 POP JUMP JUMPDEST DUP1 CALLDATALOAD PUSH1 0x1 PUSH1 0x1 PUSH1 0xA0 SHL SUB DUP2 AND DUP2 EQ PUSH2 0x19F5 JUMPI PUSH1 0x0 DUP1 REVERT JUMPDEST SWAP2 SWAP1 POP JUMP JUMPDEST PUSH1 0x0 DUP1 PUSH1 0x40 DUP4 DUP6 SUB SLT ISZERO PUSH2 0x1A0D JUMPI PUSH1 0x0 DUP1 REVERT JUMPDEST PUSH2 0x1A16 DUP4 PUSH2 0x19DE JUMP JUMPDEST SWAP5 PUSH1 0x20 SWAP4 SWAP1 SWAP4 ADD CALLDATALOAD SWAP4 POP POP POP JUMP JUMPDEST PUSH1 0x0 PUSH1 0x20 DUP3 DUP5 SUB SLT ISZERO PUSH2 0x1A36 JUMPI PUSH1 0x0 DUP1 REVERT JUMPDEST PUSH2 0x14DF DUP3 PUSH2 0x19DE JUMP JUMPDEST PUSH1 0x0 DUP1 PUSH1 0x0 PUSH1 0x60 DUP5 DUP7 SUB SLT ISZERO PUSH2 0x1A54 JUMPI PUSH1 0x0 DUP1 REVERT JUMPDEST PUSH2 0x1A5D DUP5 PUSH2 0x19DE JUMP JUMPDEST SWAP3 POP PUSH2 0x1A6B PUSH1 0x20 DUP6 ADD PUSH2 0x19DE JUMP JUMPDEST SWAP2 POP PUSH1 0x40 DUP5 ADD CALLDATALOAD SWAP1 POP SWAP3 POP SWAP3 POP SWAP3 JUMP JUMPDEST PUSH4 0x4E487B71 PUSH1 0xE0 SHL PUSH1 0x0 MSTORE PUSH1 0x41 PUSH1 0x4 MSTORE PUSH1 0x24 PUSH1 0x0 REVERT JUMPDEST PUSH1 0x0 PUSH8 0xFFFFFFFFFFFFFFFF DUP1 DUP5 GT ISZERO PUSH2 0x1AAC JUMPI PUSH2 0x1AAC PUSH2 0x1A7B JUMP JUMPDEST PUSH1 0x40 MLOAD PUSH1 0x1F DUP6 ADD PUSH1 0x1F NOT SWAP1 DUP2 AND PUSH1 0x3F ADD AND DUP2 ADD SWAP1 DUP3 DUP3 GT DUP2 DUP4 LT OR ISZERO PUSH2 0x1AD4 JUMPI PUSH2 0x1AD4 PUSH2 0x1A7B JUMP JUMPDEST DUP2 PUSH1 0x40 MSTORE DUP1 SWAP4 POP DUP6 DUP2 MSTORE DUP7 DUP7 DUP7 ADD GT ISZERO PUSH2 0x1AED JUMPI PUSH1 0x0 DUP1 REVERT JUMPDEST DUP6 DUP6 PUSH1 0x20 DUP4 ADD CALLDATACOPY PUSH1 0x0 PUSH1 0x20 DUP8 DUP4 ADD ADD MSTORE POP POP POP SWAP4 SWAP3 POP POP POP JUMP JUMPDEST PUSH1 0x0 PUSH1 0x20 DUP3 DUP5 SUB SLT ISZERO PUSH2 0x1B19 JUMPI PUSH1 0x0 DUP1 REVERT JUMPDEST DUP2 CALLDATALOAD PUSH8 0xFFFFFFFFFFFFFFFF DUP2 GT ISZERO PUSH2 0x1B30 JUMPI PUSH1 0x0 DUP1 REVERT JUMPDEST DUP3 ADD PUSH1 0x1F DUP2 ADD DUP5 SGT PUSH2 0x1B41 JUMPI PUSH1 0x0 DUP1 REVERT JUMPDEST PUSH2 0x1637 DUP5 DUP3 CALLDATALOAD PUSH1 0x20 DUP5 ADD PUSH2 0x1A91 JUMP JUMPDEST PUSH1 0xFF DUP2 AND DUP2 EQ PUSH2 0x13C5 JUMPI PUSH1 0x0 DUP1 REVERT JUMPDEST PUSH1 0x0 PUSH1 0x20 DUP3 DUP5 SUB SLT ISZERO PUSH2 0x1B71 JUMPI PUSH1 0x0 DUP1 REVERT JUMPDEST DUP2 CALLDATALOAD PUSH2 0x14DF DUP2 PUSH2 0x1B50 JUMP JUMPDEST DUP1 ISZERO ISZERO DUP2 EQ PUSH2 0x13C5 JUMPI PUSH1 0x0 DUP1 REVERT JUMPDEST PUSH1 0x0 DUP1 PUSH1 0x40 DUP4 DUP6 SUB SLT ISZERO PUSH2 0x1B9D JUMPI PUSH1 0x0 DUP1 REVERT JUMPDEST PUSH2 0x1BA6 DUP4 PUSH2 0x19DE JUMP JUMPDEST SWAP2 POP PUSH1 0x20 DUP4 ADD CALLDATALOAD PUSH2 0x1BB6 DUP2 PUSH2 0x1B7C JUMP JUMPDEST DUP1 SWAP2 POP POP SWAP3 POP SWAP3 SWAP1 POP JUMP JUMPDEST PUSH1 0x0 DUP1 PUSH1 0x0 DUP1 PUSH1 0x80 DUP6 DUP8 SUB SLT ISZERO PUSH2 0x1BD7 JUMPI PUSH1 0x0 DUP1 REVERT JUMPDEST PUSH2 0x1BE0 DUP6 PUSH2 0x19DE JUMP JUMPDEST SWAP4 POP PUSH2 0x1BEE PUSH1 0x20 DUP7 ADD PUSH2 0x19DE JUMP JUMPDEST SWAP3 POP PUSH1 0x40 DUP6 ADD CALLDATALOAD SWAP2 POP PUSH1 0x60 DUP6 ADD CALLDATALOAD PUSH8 0xFFFFFFFFFFFFFFFF DUP2 GT ISZERO PUSH2 0x1C11 JUMPI PUSH1 0x0 DUP1 REVERT JUMPDEST DUP6 ADD PUSH1 0x1F DUP2 ADD DUP8 SGT PUSH2 0x1C22 JUMPI PUSH1 0x0 DUP1 REVERT JUMPDEST PUSH2 0x1C31 DUP8 DUP3 CALLDATALOAD PUSH1 0x20 DUP5 ADD PUSH2 0x1A91 JUMP JUMPDEST SWAP2 POP POP SWAP3 SWAP6 SWAP2 SWAP5 POP SWAP3 POP JUMP JUMPDEST PUSH1 0x0 DUP1 PUSH1 0x0 PUSH1 0x60 DUP5 DUP7 SUB SLT ISZERO PUSH2 0x1C52 JUMPI PUSH1 0x0 DUP1 REVERT JUMPDEST DUP4 CALLDATALOAD PUSH2 0x1C5D DUP2 PUSH2 0x1B50 JUMP JUMPDEST SWAP3 POP PUSH1 0x20 DUP5 ADD CALLDATALOAD PUSH2 0x1C6D DUP2 PUSH2 0x1B50 JUMP JUMPDEST SWAP2 POP PUSH1 0x40 DUP5 ADD CALLDATALOAD PUSH2 0x1C7D DUP2 PUSH2 0x1B50 JUMP JUMPDEST DUP1 SWAP2 POP POP SWAP3 POP SWAP3 POP SWAP3 JUMP JUMPDEST PUSH1 0x0 DUP1 PUSH1 0x40 DUP4 DUP6 SUB SLT ISZERO PUSH2 0x1C9B JUMPI PUSH1 0x0 DUP1 REVERT JUMPDEST PUSH2 0x1CA4 DUP4 PUSH2 0x19DE JUMP JUMPDEST SWAP2 POP PUSH2 0x1CB2 PUSH1 0x20 DUP5 ADD PUSH2 0x19DE JUMP JUMPDEST SWAP1 POP SWAP3 POP SWAP3 SWAP1 POP JUMP JUMPDEST PUSH1 0x1 DUP2 DUP2 SHR SWAP1 DUP3 AND DUP1 PUSH2 0x1CCF JUMPI PUSH1 0x7F DUP3 AND SWAP2 POP JUMPDEST PUSH1 0x20 DUP3 LT DUP2 SUB PUSH2 0x1CEF JUMPI PUSH4 0x4E487B71 PUSH1 0xE0 SHL PUSH1 0x0 MSTORE PUSH1 0x22 PUSH1 0x4 MSTORE PUSH1 0x24 PUSH1 0x0 REVERT JUMPDEST POP SWAP2 SWAP1 POP JUMP JUMPDEST PUSH1 0x1F DUP3 GT ISZERO PUSH2 0xA77 JUMPI PUSH1 0x0 DUP2 DUP2 MSTORE PUSH1 0x20 DUP2 KECCAK256 PUSH1 0x1F DUP6 ADD PUSH1 0x5 SHR DUP2 ADD PUSH1 0x20 DUP7 LT ISZERO PUSH2 0x1D1C JUMPI POP DUP1 JUMPDEST PUSH1 0x1F DUP6 ADD PUSH1 0x5 SHR DUP3 ADD SWAP2 POP JUMPDEST DUP2 DUP2 LT ISZERO PUSH2 0xA54 JUMPI DUP3 DUP2 SSTORE PUSH1 0x1 ADD PUSH2 0x1D28 JUMP JUMPDEST DUP2 MLOAD PUSH8 0xFFFFFFFFFFFFFFFF DUP2 GT ISZERO PUSH2 0x1D55 JUMPI PUSH2 0x1D55 PUSH2 0x1A7B JUMP JUMPDEST PUSH2 0x1D69 DUP2 PUSH2 0x1D63 DUP5 SLOAD PUSH2 0x1CBB JUMP JUMPDEST DUP5 PUSH2 0x1CF5 JUMP JUMPDEST PUSH1 0x20 DUP1 PUSH1 0x1F DUP4 GT PUSH1 0x1 DUP2 EQ PUSH2 0x1D9E JUMPI PUSH1 0x0 DUP5 ISZERO PUSH2 0x1D86 JUMPI POP DUP6 DUP4 ADD MLOAD JUMPDEST PUSH1 0x0 NOT PUSH1 0x3 DUP7 SWAP1 SHL SHR NOT AND PUSH1 0x1 DUP6 SWAP1 SHL OR DUP6 SSTORE PUSH2 0xA54 JUMP JUMPDEST PUSH1 0x0 DUP6 DUP2 MSTORE PUSH1 0x20 DUP2 KECCAK256 PUSH1 0x1F NOT DUP7 AND SWAP2 JUMPDEST DUP3 DUP2 LT ISZERO PUSH2 0x1DCD JUMPI DUP9 DUP7 ADD MLOAD DUP3 SSTORE SWAP5 DUP5 ADD SWAP5 PUSH1 0x1 SWAP1 SWAP2 ADD SWAP1 DUP5 ADD PUSH2 0x1DAE JUMP JUMPDEST POP DUP6 DUP3 LT ISZERO PUSH2 0x1DEB JUMPI DUP8 DUP6 ADD MLOAD PUSH1 0x0 NOT PUSH1 0x3 DUP9 SWAP1 SHL PUSH1 0xF8 AND SHR NOT AND DUP2 SSTORE JUMPDEST POP POP POP POP POP PUSH1 0x1 SWAP1 DUP2 SHL ADD SWAP1 SSTORE POP JUMP JUMPDEST PUSH1 0x0 PUSH1 0x40 DUP3 DUP5 SUB SLT ISZERO PUSH2 0x1E0D JUMPI PUSH1 0x0 DUP1 REVERT JUMPDEST PUSH1 0x40 MLOAD PUSH1 0x40 DUP2 ADD DUP2 DUP2 LT PUSH8 0xFFFFFFFFFFFFFFFF DUP3 GT OR ISZERO PUSH2 0x1E30 JUMPI PUSH2 0x1E30 PUSH2 0x1A7B JUMP JUMPDEST PUSH1 0x40 MSTORE DUP3 MLOAD PUSH2 0x1E3E DUP2 PUSH2 0x1B50 JUMP JUMPDEST DUP2 MSTORE PUSH1 0x20 DUP4 ADD MLOAD PUSH2 0x1E4E DUP2 PUSH2 0x1B50 JUMP JUMPDEST PUSH1 0x20 DUP3 ADD MSTORE SWAP4 SWAP3 POP POP POP JUMP JUMPDEST PUSH1 0x0 PUSH1 0x20 DUP3 DUP5 SUB SLT ISZERO PUSH2 0x1E6C JUMPI PUSH1 0x0 DUP1 REVERT JUMPDEST POP MLOAD SWAP2 SWAP1 POP JUMP JUMPDEST PUSH1 0x0 PUSH1 0x20 DUP3 DUP5 SUB SLT ISZERO PUSH2 0x1E85 JUMPI PUSH1 0x0 DUP1 REVERT JUMPDEST DUP2 MLOAD PUSH2 0x14DF DUP2 PUSH2 0x1B50 JUMP JUMPDEST PUSH1 0x0 DUP2 SLOAD PUSH2 0x1E9D DUP2 PUSH2 0x1CBB JUMP JUMPDEST PUSH1 0x1 DUP3 DUP2 AND DUP1 ISZERO PUSH2 0x1EB5 JUMPI PUSH1 0x1 DUP2 EQ PUSH2 0x1ECA JUMPI PUSH2 0x1EF9 JUMP JUMPDEST PUSH1 0xFF NOT DUP5 AND DUP8 MSTORE DUP3 ISZERO ISZERO DUP4 MUL DUP8 ADD SWAP5 POP PUSH2 0x1EF9 JUMP JUMPDEST DUP6 PUSH1 0x0 MSTORE PUSH1 0x20 DUP1 PUSH1 0x0 KECCAK256 PUSH1 0x0 JUMPDEST DUP6 DUP2 LT ISZERO PUSH2 0x1EF0 JUMPI DUP2 SLOAD DUP11 DUP3 ADD MSTORE SWAP1 DUP5 ADD SWAP1 DUP3 ADD PUSH2 0x1ED7 JUMP JUMPDEST POP POP POP DUP3 DUP8 ADD SWAP5 POP JUMPDEST POP POP POP POP SWAP3 SWAP2 POP POP JUMP JUMPDEST PUSH1 0x0 PUSH2 0x1F0F DUP3 DUP7 PUSH2 0x1E90 JUMP JUMPDEST DUP5 MLOAD PUSH2 0x1F1F DUP2 DUP4 PUSH1 0x20 DUP10 ADD PUSH2 0x1962 JUMP JUMPDEST PUSH2 0x1F2B DUP2 DUP4 ADD DUP7 PUSH2 0x1E90 JUMP JUMPDEST SWAP8 SWAP7 POP POP POP POP POP POP POP JUMP JUMPDEST DUP1 DUP3 ADD DUP1 DUP3 GT ISZERO PUSH2 0x68F JUMPI PUSH4 0x4E487B71 PUSH1 0xE0 SHL PUSH1 0x0 MSTORE PUSH1 0x11 PUSH1 0x4 MSTORE PUSH1 0x24 PUSH1 0x0 REVERT JUMPDEST PUSH1 0x0 PUSH1 0x20 DUP3 DUP5 SUB SLT ISZERO PUSH2 0x1F69 JUMPI PUSH1 0x0 DUP1 REVERT JUMPDEST DUP2 MLOAD PUSH2 0x14DF DUP2 PUSH2 0x1B7C JUMP JUMPDEST PUSH1 0x1 PUSH1 0x1 PUSH1 0xA0 SHL SUB DUP6 DUP2 AND DUP3 MSTORE DUP5 AND PUSH1 0x20 DUP3 ADD MSTORE PUSH1 0x40 DUP2 ADD DUP4 SWAP1 MSTORE PUSH1 0x80 PUSH1 0x60 DUP3 ADD DUP2 SWAP1 MSTORE PUSH1 0x0 SWAP1 PUSH2 0x1FA7 SWAP1 DUP4 ADD DUP5 PUSH2 0x1986 JUMP JUMPDEST SWAP7 SWAP6 POP POP POP POP POP POP JUMP JUMPDEST PUSH1 0x0 PUSH1 0x20 DUP3 DUP5 SUB SLT ISZERO PUSH2 0x1FC3 JUMPI PUSH1 0x0 DUP1 REVERT JUMPDEST DUP2 MLOAD PUSH2 0x14DF DUP2 PUSH2 0x192F JUMP INVALID LOG2 PUSH5 0x6970667358 0x22 SLT KECCAK256 0xB4 PUSH5 0xF6F239E8A9 0xD7 0xE0 0xF8 SSTORE 0xA6 0xD1 0x2B NUMBER PUSH19 0xA9F5682B97B18453C54FDB2CA7B9601664736F PUSH13 0x63430008110033000000000000 "},"methodIdentifiers":{"URISuffix()":"101b0fbc","activeRace()":"952f4023","approve(address,uint256)":"095ea7b3","balanceOf(address)":"70a08231","baseURI()":"6c0360eb","getApproved(uint256)":"081812fc","getDriverCost(uint8)":"d122e93a","getDriverRating(uint8)":"fcf4ed93","getTeamCost(uint8)":"8556646b","getTeamRating(uint8)":"9cf60028","getTrackData(uint8)":"67883f4b","isApprovedForAll(address,address)":"e985e9c5","mint(uint8,uint8,uint8)":"e6f12af9","name()":"06fdde03","oracle()":"7dc0d1d0","owner()":"8da5cb5b","ownerOf(uint256)":"6352211e","renounceOwnership()":"715018a6","safeTransferFrom(address,address,uint256)":"42842e0e","safeTransferFrom(address,address,uint256,bytes)":"b88d4fde","setActiveRace(uint8)":"d5534b6a","setApprovalForAll(address,bool)":"a22cb465","setBaseURI(string)":"55f804b3","supportsInterface(bytes4)":"01ffc9a7","symbol()":"95d89b41","token()":"fc0c546a","tokenIdToDriverMapping(uint256)":"6d0f220e","tokenURI(uint256)":"c87b56dd","totalSupply()":"18160ddd","transferFrom(address,address,uint256)":"23b872dd","transferOwnership(address)":"f2fde38b","updateOracle(address)":"1cb44dfc","updateToken(address)":"7ad3def2"}}}}}